{
  "contractName": "BlindAuction",
  "abi": [
    {
      "anonymous": false,
      "inputs": [
        {
          "indexed": false,
          "internalType": "uint256",
          "name": "_auctionId",
          "type": "uint256"
        },
        {
          "indexed": false,
          "internalType": "address",
          "name": "_bidder",
          "type": "address"
        },
        {
          "indexed": false,
          "internalType": "uint256",
          "name": "_value",
          "type": "uint256"
        }
      ],
      "name": "AuctionBid",
      "type": "event"
    },
    {
      "anonymous": false,
      "inputs": [
        {
          "indexed": false,
          "internalType": "address",
          "name": "_seller",
          "type": "address"
        },
        {
          "indexed": false,
          "internalType": "string",
          "name": "_title",
          "type": "string"
        },
        {
          "indexed": false,
          "internalType": "string",
          "name": "_description",
          "type": "string"
        },
        {
          "indexed": false,
          "internalType": "uint256",
          "name": "_minimumPrice",
          "type": "uint256"
        }
      ],
      "name": "AuctionCreated",
      "type": "event"
    },
    {
      "anonymous": false,
      "inputs": [
        {
          "indexed": false,
          "internalType": "uint256",
          "name": "_auctionId",
          "type": "uint256"
        },
        {
          "indexed": false,
          "internalType": "address",
          "name": "_highestBidder",
          "type": "address"
        },
        {
          "indexed": false,
          "internalType": "uint256",
          "name": "_highestBid",
          "type": "uint256"
        }
      ],
      "name": "AuctionEnded",
      "type": "event"
    },
    {
      "anonymous": false,
      "inputs": [
        {
          "indexed": false,
          "internalType": "uint256",
          "name": "_auctionId",
          "type": "uint256"
        },
        {
          "indexed": false,
          "internalType": "address",
          "name": "_bidder",
          "type": "address"
        },
        {
          "indexed": false,
          "internalType": "uint256",
          "name": "_value",
          "type": "uint256"
        }
      ],
      "name": "AuctionPrebid",
      "type": "event"
    },
    {
      "anonymous": false,
      "inputs": [
        {
          "indexed": false,
          "internalType": "uint256",
          "name": "_auctionId",
          "type": "uint256"
        },
        {
          "indexed": false,
          "internalType": "address",
          "name": "_bidder",
          "type": "address"
        },
        {
          "indexed": false,
          "internalType": "uint256",
          "name": "_value",
          "type": "uint256"
        }
      ],
      "name": "AuctionReveal",
      "type": "event"
    },
    {
      "anonymous": false,
      "inputs": [
        {
          "indexed": false,
          "internalType": "uint256",
          "name": "_auctionId",
          "type": "uint256"
        },
        {
          "indexed": false,
          "internalType": "address",
          "name": "_bidder",
          "type": "address"
        },
        {
          "indexed": false,
          "internalType": "uint256",
          "name": "_value",
          "type": "uint256"
        }
      ],
      "name": "BidFail",
      "type": "event"
    },
    {
      "anonymous": false,
      "inputs": [
        {
          "indexed": false,
          "internalType": "uint256",
          "name": "_auctionId",
          "type": "uint256"
        },
        {
          "indexed": false,
          "internalType": "address",
          "name": "_bidder",
          "type": "address"
        },
        {
          "indexed": false,
          "internalType": "uint256",
          "name": "_value",
          "type": "uint256"
        }
      ],
      "name": "NowHighestBidder",
      "type": "event"
    },
    {
      "anonymous": false,
      "inputs": [
        {
          "indexed": false,
          "internalType": "uint256",
          "name": "_auctionId",
          "type": "uint256"
        },
        {
          "indexed": false,
          "internalType": "address",
          "name": "_bidder",
          "type": "address"
        },
        {
          "indexed": false,
          "internalType": "uint256",
          "name": "_value",
          "type": "uint256"
        }
      ],
      "name": "Withdraw",
      "type": "event"
    },
    {
      "inputs": [
        {
          "internalType": "uint256",
          "name": "",
          "type": "uint256"
        }
      ],
      "name": "auctions",
      "outputs": [
        {
          "internalType": "uint256",
          "name": "auctionId",
          "type": "uint256"
        },
        {
          "internalType": "address payable",
          "name": "seller",
          "type": "address"
        },
        {
          "internalType": "string",
          "name": "title",
          "type": "string"
        },
        {
          "internalType": "string",
          "name": "description",
          "type": "string"
        },
        {
          "internalType": "uint256",
          "name": "minimumPrice",
          "type": "uint256"
        },
        {
          "internalType": "uint256",
          "name": "prebidderCount",
          "type": "uint256"
        },
        {
          "internalType": "uint256",
          "name": "bidderCount",
          "type": "uint256"
        },
        {
          "internalType": "uint256",
          "name": "revealCount",
          "type": "uint256"
        },
        {
          "internalType": "address",
          "name": "highestBidder",
          "type": "address"
        },
        {
          "internalType": "uint256",
          "name": "highestBid",
          "type": "uint256"
        },
        {
          "internalType": "enum BlindAuction.Phase",
          "name": "currentPhase",
          "type": "uint8"
        },
        {
          "internalType": "uint256",
          "name": "phaseBlockNumber",
          "type": "uint256"
        }
      ],
      "stateMutability": "view",
      "type": "function",
      "constant": true
    },
    {
      "inputs": [],
      "name": "numAuctions",
      "outputs": [
        {
          "internalType": "uint256",
          "name": "",
          "type": "uint256"
        }
      ],
      "stateMutability": "view",
      "type": "function",
      "constant": true
    },
    {
      "inputs": [
        {
          "internalType": "uint256",
          "name": "_auctionId",
          "type": "uint256"
        }
      ],
      "name": "getAuctionBidders",
      "outputs": [
        {
          "components": [
            {
              "internalType": "address payable",
              "name": "addr",
              "type": "address"
            },
            {
              "internalType": "bytes32",
              "name": "blindedBid",
              "type": "bytes32"
            }
          ],
          "internalType": "struct BlindAuction.Bidder[]",
          "name": "",
          "type": "tuple[]"
        }
      ],
      "stateMutability": "view",
      "type": "function",
      "constant": true
    },
    {
      "inputs": [
        {
          "internalType": "address payable",
          "name": "_seller",
          "type": "address"
        },
        {
          "internalType": "string",
          "name": "_title",
          "type": "string"
        },
        {
          "internalType": "string",
          "name": "_description",
          "type": "string"
        },
        {
          "internalType": "uint256",
          "name": "_minimumPrice",
          "type": "uint256"
        }
      ],
      "name": "createAuction",
      "outputs": [
        {
          "internalType": "uint256",
          "name": "",
          "type": "uint256"
        }
      ],
      "stateMutability": "nonpayable",
      "type": "function"
    },
    {
      "inputs": [
        {
          "internalType": "uint256",
          "name": "_auctionId",
          "type": "uint256"
        },
        {
          "internalType": "uint256",
          "name": "_value",
          "type": "uint256"
        }
      ],
      "name": "prebid",
      "outputs": [],
      "stateMutability": "nonpayable",
      "type": "function"
    },
    {
      "inputs": [
        {
          "internalType": "uint256",
          "name": "_auctionId",
          "type": "uint256"
        }
      ],
      "name": "getMyBid",
      "outputs": [
        {
          "internalType": "uint256",
          "name": "",
          "type": "uint256"
        }
      ],
      "stateMutability": "view",
      "type": "function",
      "constant": true
    },
    {
      "inputs": [
        {
          "internalType": "uint256",
          "name": "_auctionId",
          "type": "uint256"
        }
      ],
      "name": "bid",
      "outputs": [],
      "stateMutability": "payable",
      "type": "function",
      "payable": true
    },
    {
      "inputs": [
        {
          "internalType": "uint256",
          "name": "_auctionId",
          "type": "uint256"
        },
        {
          "internalType": "uint256",
          "name": "_value",
          "type": "uint256"
        }
      ],
      "name": "reveal",
      "outputs": [],
      "stateMutability": "nonpayable",
      "type": "function"
    },
    {
      "inputs": [
        {
          "internalType": "uint256",
          "name": "_auctionId",
          "type": "uint256"
        },
        {
          "internalType": "address",
          "name": "_bidder",
          "type": "address"
        }
      ],
      "name": "withdraw",
      "outputs": [],
      "stateMutability": "nonpayable",
      "type": "function"
    },
    {
      "inputs": [
        {
          "internalType": "uint256",
          "name": "_auctionId",
          "type": "uint256"
        }
      ],
      "name": "auctionEnd",
      "outputs": [],
      "stateMutability": "payable",
      "type": "function",
      "payable": true
    },
    {
      "inputs": [],
      "name": "getCurrentBlockNumber",
      "outputs": [
        {
          "internalType": "uint256",
          "name": "",
          "type": "uint256"
        }
      ],
      "stateMutability": "view",
      "type": "function",
      "constant": true
    },
    {
      "inputs": [],
      "name": "generateBlock",
      "outputs": [],
      "stateMutability": "nonpayable",
      "type": "function"
    }
  ],
  "bytecode": "0x608060405234801561001057600080fd5b50612fbf806100206000396000f3fe6080604052600436106100a65760003560e01c80635c113acc116100645780635c113acc146101ba5780636fd902e1146101e5578063763e4ad7146102105780638df6d6e6146102275780639348cef714610264578063df2764691461028d576100a6565b8062f714ce146100ab5780631e1392a4146100d457806332246e9f14610111578063379e90301461012d578063454a2ab314610156578063571a26a014610172575b600080fd5b3480156100b757600080fd5b506100d260048036038101906100cd919061209c565b6102ca565b005b3480156100e057600080fd5b506100fb60048036038101906100f69190612260565b61069c565b604051610108919061230e565b60405180910390f35b61012b60048036038101906101269190612329565b6107cd565b005b34801561013957600080fd5b50610154600480360381019061014f9190612356565b6109fd565b005b610170600480360381019061016b9190612329565b610cb4565b005b34801561017e57600080fd5b5061019960048036038101906101949190612329565b611080565b6040516101b19c9b9a999897969594939291906124aa565b60405180910390f35b3480156101c657600080fd5b506101cf61124d565b6040516101dc919061230e565b60405180910390f35b3480156101f157600080fd5b506101fa611253565b604051610207919061230e565b60405180910390f35b34801561021c57600080fd5b5061022561125b565b005b34801561023357600080fd5b5061024e60048036038101906102499190612329565b611275565b60405161025b919061230e565b60405180910390f35b34801561027057600080fd5b5061028b60048036038101906102869190612356565b6116c7565b005b34801561029957600080fd5b506102b460048036038101906102af9190612329565b611bb5565b6040516102c19190612678565b60405180910390f35b6000600383815481106102e0576102df61269a565b5b90600052602060002090600d020190506002600381111561030457610303612433565b5b81600b0160009054906101000a900460ff16600381111561032857610327612433565b5b1480610368575060038081111561034257610341612433565b5b81600b0160009054906101000a900460ff16600381111561036657610365612433565b5b145b6103a7576040517f08c379a000000000000000000000000000000000000000000000000000000000815260040161039e90612715565b60405180910390fd5b60008060008473ffffffffffffffffffffffffffffffffffffffff1673ffffffffffffffffffffffffffffffffffffffff16815260200190815260200160002060008581526020019081526020016000205490506000811161043e576040517f08c379a000000000000000000000000000000000000000000000000000000000815260040161043590612781565b60405180910390fd5b6000600160008573ffffffffffffffffffffffffffffffffffffffff1673ffffffffffffffffffffffffffffffffffffffff168152602001908152602001600020600086815260200190815260200160002054905082600501600184600501805490506104ab91906127d0565b815481106104bc576104bb61269a565b5b90600052602060002090600202018360050182815481106104e0576104df61269a565b5b90600052602060002090600202016000820160009054906101000a900473ffffffffffffffffffffffffffffffffffffffff168160000160006101000a81548173ffffffffffffffffffffffffffffffffffffffff021916908373ffffffffffffffffffffffffffffffffffffffff160217905550600182015481600101559050508260050180548061057657610575612804565b5b6001900381819060005260206000209060020201600080820160006101000a81549073ffffffffffffffffffffffffffffffffffffffff021916905560018201600090555050905560008060008673ffffffffffffffffffffffffffffffffffffffff1673ffffffffffffffffffffffffffffffffffffffff1681526020019081526020016000206000878152602001908152602001600020819055508373ffffffffffffffffffffffffffffffffffffffff166108fc839081150290604051600060405180830381858888f19350505050158015610659573d6000803e3d6000fd5b507f9da6493a92039daf47d1f2d7a782299c5994c6323eb1e972f69c432089ec52bf85858460405161068d93929190612833565b60405180910390a15050505050565b600060036001816001815401808255809150500390600052602060002090505060006003600254815481106106d4576106d361269a565b5b90600052602060002090600d020190506002548160000181905550858160010160006101000a81548173ffffffffffffffffffffffffffffffffffffffff021916908373ffffffffffffffffffffffffffffffffffffffff160217905550848160020190816107439190612a76565b50838160030190816107559190612a76565b508281600401819055504381600c01819055506002600081548092919061077b90612b48565b91905055507fa765faa92a7e7c2062e6396f022fd55ae2029b555ce5455fd79414e5a111b35a868686866040516107b59493929190612be5565b60405180910390a18060000154915050949350505050565b6000600382815481106107e3576107e261269a565b5b90600052602060002090600d020190508060010160009054906101000a900473ffffffffffffffffffffffffffffffffffffffff1673ffffffffffffffffffffffffffffffffffffffff163373ffffffffffffffffffffffffffffffffffffffff1614610885576040517f08c379a000000000000000000000000000000000000000000000000000000000815260040161087c90612c84565b60405180910390fd5b6002548211156108ca576040517f08c379a00000000000000000000000000000000000000000000000000000000081526004016108c190612cf0565b60405180910390fd5b6003808111156108dd576108dc612433565b5b81600b0160009054906101000a900460ff16600381111561090157610900612433565b5b1461090b57600080fd5b80600a0154471061099657600081600a01549050600082600a01819055508160010160009054906101000a900473ffffffffffffffffffffffffffffffffffffffff1673ffffffffffffffffffffffffffffffffffffffff166108fc829081150290604051600060405180830381858888f19350505050158015610993573d6000803e3d6000fd5b50505b7fd2aa34a4fdbbc6dff6a3e56f46e0f3ae2a31d7785ff3487aa5c95c642acea501828260090160009054906101000a900473ffffffffffffffffffffffffffffffffffffffff1683600a01546040516109f193929190612833565b60405180910390a15050565b600060038381548110610a1357610a1261269a565b5b90600052602060002090600d020190508060010160009054906101000a900473ffffffffffffffffffffffffffffffffffffffff1673ffffffffffffffffffffffffffffffffffffffff163373ffffffffffffffffffffffffffffffffffffffff1603610ab5576040517f08c379a0000000000000000000000000000000000000000000000000000000008152600401610aac90612d5c565b60405180910390fd5b600254831115610afa576040517f08c379a0000000000000000000000000000000000000000000000000000000008152600401610af190612cf0565b60405180910390fd5b60006003811115610b0e57610b0d612433565b5b81600b0160009054906101000a900460ff166003811115610b3257610b31612433565b5b14610b72576040517f08c379a0000000000000000000000000000000000000000000000000000000008152600401610b6990612715565b60405180910390fd5b80600401548211610bb8576040517f08c379a0000000000000000000000000000000000000000000000000000000008152600401610baf90612dc8565b60405180910390fd5b816000803373ffffffffffffffffffffffffffffffffffffffff1673ffffffffffffffffffffffffffffffffffffffff168152602001908152602001600020600085815260200190815260200160002081905550806006016000815480929190610c2190612b48565b9190505550600a81600c0154610c379190612de8565b4310610c74574381600c0181905550600181600b0160006101000a81548160ff02191690836003811115610c6e57610c6d612433565b5b02179055505b7f63404806fdb0ebf1efaf366c0ef00621065d328975255a3e51866cf6812ec42d833384604051610ca793929190612833565b60405180910390a1505050565b600060038281548110610cca57610cc961269a565b5b90600052602060002090600d020190508060010160009054906101000a900473ffffffffffffffffffffffffffffffffffffffff1673ffffffffffffffffffffffffffffffffffffffff163373ffffffffffffffffffffffffffffffffffffffff1603610d6c576040517f08c379a0000000000000000000000000000000000000000000000000000000008152600401610d6390612d5c565b60405180910390fd5b600254821115610db1576040517f08c379a0000000000000000000000000000000000000000000000000000000008152600401610da890612cf0565b60405180910390fd5b60016003811115610dc557610dc4612433565b5b81600b0160009054906101000a900460ff166003811115610de957610de8612433565b5b14610e29576040517f08c379a0000000000000000000000000000000000000000000000000000000008152600401610e2090612715565b60405180910390fd5b6000803373ffffffffffffffffffffffffffffffffffffffff1673ffffffffffffffffffffffffffffffffffffffff1681526020019081526020016000206000838152602001908152602001600020543414610eba576040517f08c379a0000000000000000000000000000000000000000000000000000000008152600401610eb190612e68565b60405180910390fd5b60003334604051602001610ecf929190612ef1565b6040516020818303038152906040528051906020012090508160050160405180604001604052803373ffffffffffffffffffffffffffffffffffffffff16815260200183815250908060018154018082558091505060019003906000526020600020906002020160009091909190915060008201518160000160006101000a81548173ffffffffffffffffffffffffffffffffffffffff021916908373ffffffffffffffffffffffffffffffffffffffff160217905550602082015181600101555050816007016000815480929190610fa790612b48565b91905055508160070154826006015403610ff2574382600c0181905550600282600b0160006101000a81548160ff02191690836003811115610fec57610feb612433565b5b02179055505b600a82600c01546110039190612de8565b4310611040574382600c0181905550600282600b0160006101000a81548160ff0219169083600381111561103a57611039612433565b5b02179055505b7fb8d756f2d1da4663767eb4d559780ace84f2f65a421a60ddcb47e8b2e5d2fd2683333460405161107393929190612833565b60405180910390a1505050565b6003818154811061109057600080fd5b90600052602060002090600d02016000915090508060000154908060010160009054906101000a900473ffffffffffffffffffffffffffffffffffffffff16908060020180546110df90612899565b80601f016020809104026020016040519081016040528092919081815260200182805461110b90612899565b80156111585780601f1061112d57610100808354040283529160200191611158565b820191906000526020600020905b81548152906001019060200180831161113b57829003601f168201915b50505050509080600301805461116d90612899565b80601f016020809104026020016040519081016040528092919081815260200182805461119990612899565b80156111e65780601f106111bb576101008083540402835291602001916111e6565b820191906000526020600020905b8154815290600101906020018083116111c957829003601f168201915b5050505050908060040154908060060154908060070154908060080154908060090160009054906101000a900473ffffffffffffffffffffffffffffffffffffffff169080600a01549080600b0160009054906101000a900460ff169080600c015490508c565b60025481565b600043905090565b6004600081548092919061126e90612b48565b9190505550565b6000806003838154811061128c5761128b61269a565b5b90600052602060002090600d0201604051806101a0016040529081600082015481526020016001820160009054906101000a900473ffffffffffffffffffffffffffffffffffffffff1673ffffffffffffffffffffffffffffffffffffffff1673ffffffffffffffffffffffffffffffffffffffff16815260200160028201805461131690612899565b80601f016020809104026020016040519081016040528092919081815260200182805461134290612899565b801561138f5780601f106113645761010080835404028352916020019161138f565b820191906000526020600020905b81548152906001019060200180831161137257829003601f168201915b505050505081526020016003820180546113a890612899565b80601f01602080910402602001604051908101604052809291908181526020018280546113d490612899565b80156114215780601f106113f657610100808354040283529160200191611421565b820191906000526020600020905b81548152906001019060200180831161140457829003601f168201915b505050505081526020016004820154815260200160058201805480602002602001604051908101604052809291908181526020016000905b828210156114eb57838290600052602060002090600202016040518060400160405290816000820160009054906101000a900473ffffffffffffffffffffffffffffffffffffffff1673ffffffffffffffffffffffffffffffffffffffff1673ffffffffffffffffffffffffffffffffffffffff16815260200160018201548152505081526020019060010190611459565b5050505081526020016006820154815260200160078201548152602001600882015481526020016009820160009054906101000a900473ffffffffffffffffffffffffffffffffffffffff1673ffffffffffffffffffffffffffffffffffffffff1673ffffffffffffffffffffffffffffffffffffffff168152602001600a8201548152602001600b820160009054906101000a900460ff16600381111561159657611595612433565b5b60038111156115a8576115a7612433565b5b8152602001600c820154815250509050806020015173ffffffffffffffffffffffffffffffffffffffff163373ffffffffffffffffffffffffffffffffffffffff160361162a576040517f08c379a000000000000000000000000000000000000000000000000000000000815260040161162190612d5c565b60405180910390fd5b60025483111561166f576040517f08c379a000000000000000000000000000000000000000000000000000000000815260040161166690612cf0565b60405180910390fd5b6000803373ffffffffffffffffffffffffffffffffffffffff1673ffffffffffffffffffffffffffffffffffffffff168152602001908152602001600020600084815260200190815260200160002054915050919050565b6000600383815481106116dd576116dc61269a565b5b90600052602060002090600d020190508060010160009054906101000a900473ffffffffffffffffffffffffffffffffffffffff1673ffffffffffffffffffffffffffffffffffffffff163373ffffffffffffffffffffffffffffffffffffffff160361177f576040517f08c379a000000000000000000000000000000000000000000000000000000000815260040161177690612f69565b60405180910390fd5b6002548311156117c4576040517f08c379a00000000000000000000000000000000000000000000000000000000081526004016117bb90612cf0565b60405180910390fd5b600260038111156117d8576117d7612433565b5b81600b0160009054906101000a900460ff1660038111156117fc576117fb612433565b5b1461183c576040517f08c379a000000000000000000000000000000000000000000000000000000000815260040161183390612715565b60405180910390fd5b6000803373ffffffffffffffffffffffffffffffffffffffff1673ffffffffffffffffffffffffffffffffffffffff16815260200190815260200160002060008481526020019081526020016000205482146118cd576040517f08c379a00000000000000000000000000000000000000000000000000000000081526004016118c490612e68565b60405180910390fd5b6118d8833384611f06565b1561191d577f0c350e4684fc5e7452b482d1e567d9c28bfbcb68e3ddeafcf1b02be0795c204683338460405161191093929190612833565b60405180910390a1611963565b7fdec763f705daa0568e8064eadf6552a633af67f362ccec95529583c487fdeb4283338460405161195093929190612833565b60405180910390a161196283336102ca565b5b80600801600081548092919061197890612b48565b919050555080600801548160070154036119c3574381600c0181905550600381600b0160006101000a81548160ff021916908360038111156119bd576119bc612433565b5b02179055505b600a81600c01546119d49190612de8565b4310611a11574381600c0181905550600381600b0160006101000a81548160ff02191690836003811115611a0b57611a0a612433565b5b02179055505b600380811115611a2457611a23612433565b5b81600b0160009054906101000a900460ff166003811115611a4857611a47612433565b5b03611b7557600081600501805490501115611b745760005b8160050180549050811015611b7257816005018181548110611a8557611a8461269a565b5b906000526020600020906002020160000160009054906101000a900473ffffffffffffffffffffffffffffffffffffffff1673ffffffffffffffffffffffffffffffffffffffff168260090160009054906101000a900473ffffffffffffffffffffffffffffffffffffffff1673ffffffffffffffffffffffffffffffffffffffff1614611b5f57611b5e84836005018381548110611b2757611b2661269a565b5b906000526020600020906002020160000160009054906101000a900473ffffffffffffffffffffffffffffffffffffffff166102ca565b5b8080611b6a90612b48565b915050611a60565b505b5b7f0863348440b3315f6437735aeabf78d3884af77f04c7bc3e999262c2957da5b9833384604051611ba893929190612833565b60405180910390a1505050565b6060600060038381548110611bcd57611bcc61269a565b5b90600052602060002090600d0201604051806101a0016040529081600082015481526020016001820160009054906101000a900473ffffffffffffffffffffffffffffffffffffffff1673ffffffffffffffffffffffffffffffffffffffff1673ffffffffffffffffffffffffffffffffffffffff168152602001600282018054611c5790612899565b80601f0160208091040260200160405190810160405280929190818152602001828054611c8390612899565b8015611cd05780601f10611ca557610100808354040283529160200191611cd0565b820191906000526020600020905b815481529060010190602001808311611cb357829003601f168201915b50505050508152602001600382018054611ce990612899565b80601f0160208091040260200160405190810160405280929190818152602001828054611d1590612899565b8015611d625780601f10611d3757610100808354040283529160200191611d62565b820191906000526020600020905b815481529060010190602001808311611d4557829003601f168201915b505050505081526020016004820154815260200160058201805480602002602001604051908101604052809291908181526020016000905b82821015611e2c57838290600052602060002090600202016040518060400160405290816000820160009054906101000a900473ffffffffffffffffffffffffffffffffffffffff1673ffffffffffffffffffffffffffffffffffffffff1673ffffffffffffffffffffffffffffffffffffffff16815260200160018201548152505081526020019060010190611d9a565b5050505081526020016006820154815260200160078201548152602001600882015481526020016009820160009054906101000a900473ffffffffffffffffffffffffffffffffffffffff1673ffffffffffffffffffffffffffffffffffffffff1673ffffffffffffffffffffffffffffffffffffffff168152602001600a8201548152602001600b820160009054906101000a900460ff166003811115611ed757611ed6612433565b5b6003811115611ee957611ee8612433565b5b8152602001600c8201548152505090508060a00151915050919050565b60008060038581548110611f1d57611f1c61269a565b5b90600052602060002090600d02019050600073ffffffffffffffffffffffffffffffffffffffff168160090160009054906101000a900473ffffffffffffffffffffffffffffffffffffffff1673ffffffffffffffffffffffffffffffffffffffff1614611f9b5780600a01548311611f9a576000915050611fed565b5b8281600a0181905550838160090160006101000a81548173ffffffffffffffffffffffffffffffffffffffff021916908373ffffffffffffffffffffffffffffffffffffffff16021790555060019150505b9392505050565b6000604051905090565b600080fd5b600080fd5b6000819050919050565b61201b81612008565b811461202657600080fd5b50565b60008135905061203881612012565b92915050565b600073ffffffffffffffffffffffffffffffffffffffff82169050919050565b60006120698261203e565b9050919050565b6120798161205e565b811461208457600080fd5b50565b60008135905061209681612070565b92915050565b600080604083850312156120b3576120b2611ffe565b5b60006120c185828601612029565b92505060206120d285828601612087565b9150509250929050565b60006120e78261203e565b9050919050565b6120f7816120dc565b811461210257600080fd5b50565b600081359050612114816120ee565b92915050565b600080fd5b600080fd5b6000601f19601f8301169050919050565b7f4e487b7100000000000000000000000000000000000000000000000000000000600052604160045260246000fd5b61216d82612124565b810181811067ffffffffffffffff8211171561218c5761218b612135565b5b80604052505050565b600061219f611ff4565b90506121ab8282612164565b919050565b600067ffffffffffffffff8211156121cb576121ca612135565b5b6121d482612124565b9050602081019050919050565b82818337600083830152505050565b60006122036121fe846121b0565b612195565b90508281526020810184848401111561221f5761221e61211f565b5b61222a8482856121e1565b509392505050565b600082601f8301126122475761224661211a565b5b81356122578482602086016121f0565b91505092915050565b6000806000806080858703121561227a57612279611ffe565b5b600061228887828801612105565b945050602085013567ffffffffffffffff8111156122a9576122a8612003565b5b6122b587828801612232565b935050604085013567ffffffffffffffff8111156122d6576122d5612003565b5b6122e287828801612232565b92505060606122f387828801612029565b91505092959194509250565b61230881612008565b82525050565b600060208201905061232360008301846122ff565b92915050565b60006020828403121561233f5761233e611ffe565b5b600061234d84828501612029565b91505092915050565b6000806040838503121561236d5761236c611ffe565b5b600061237b85828601612029565b925050602061238c85828601612029565b9150509250929050565b61239f816120dc565b82525050565b600081519050919050565b600082825260208201905092915050565b60005b838110156123df5780820151818401526020810190506123c4565b60008484015250505050565b60006123f6826123a5565b61240081856123b0565b93506124108185602086016123c1565b61241981612124565b840191505092915050565b61242d8161205e565b82525050565b7f4e487b7100000000000000000000000000000000000000000000000000000000600052602160045260246000fd5b6004811061247357612472612433565b5b50565b600081905061248482612462565b919050565b600061249482612476565b9050919050565b6124a481612489565b82525050565b6000610180820190506124c0600083018f6122ff565b6124cd602083018e612396565b81810360408301526124df818d6123eb565b905081810360608301526124f3818c6123eb565b9050612502608083018b6122ff565b61250f60a083018a6122ff565b61251c60c08301896122ff565b61252960e08301886122ff565b612537610100830187612424565b6125456101208301866122ff565b61255361014083018561249b565b6125616101608301846122ff565b9d9c50505050505050505050505050565b600081519050919050565b600082825260208201905092915050565b6000819050602082019050919050565b6125a7816120dc565b82525050565b6000819050919050565b6125c0816125ad565b82525050565b6040820160008201516125dc600085018261259e565b5060208201516125ef60208501826125b7565b50505050565b600061260183836125c6565b60408301905092915050565b6000602082019050919050565b600061262582612572565b61262f818561257d565b935061263a8361258e565b8060005b8381101561266b57815161265288826125f5565b975061265d8361260d565b92505060018101905061263e565b5085935050505092915050565b60006020820190508181036000830152612692818461261a565b905092915050565b7f4e487b7100000000000000000000000000000000000000000000000000000000600052603260045260246000fd5b7f7068617365206572726f72000000000000000000000000000000000000000000600082015250565b60006126ff600b836123b0565b915061270a826126c9565b602082019050919050565b6000602082019050818103600083015261272e816126f2565b9050919050565b7f4e6f2072657475726e20616d6f756e7400000000000000000000000000000000600082015250565b600061276b6010836123b0565b915061277682612735565b602082019050919050565b6000602082019050818103600083015261279a8161275e565b9050919050565b7f4e487b7100000000000000000000000000000000000000000000000000000000600052601160045260246000fd5b60006127db82612008565b91506127e683612008565b92508282039050818111156127fe576127fd6127a1565b5b92915050565b7f4e487b7100000000000000000000000000000000000000000000000000000000600052603160045260246000fd5b600060608201905061284860008301866122ff565b6128556020830185612424565b61286260408301846122ff565b949350505050565b7f4e487b7100000000000000000000000000000000000000000000000000000000600052602260045260246000fd5b600060028204905060018216806128b157607f821691505b6020821081036128c4576128c361286a565b5b50919050565b60008190508160005260206000209050919050565b60006020601f8301049050919050565b600082821b905092915050565b60006008830261292c7fffffffffffffffffffffffffffffffffffffffffffffffffffffffffffffffff826128ef565b61293686836128ef565b95508019841693508086168417925050509392505050565b6000819050919050565b600061297361296e61296984612008565b61294e565b612008565b9050919050565b6000819050919050565b61298d83612958565b6129a16129998261297a565b8484546128fc565b825550505050565b600090565b6129b66129a9565b6129c1818484612984565b505050565b5b818110156129e5576129da6000826129ae565b6001810190506129c7565b5050565b601f821115612a2a576129fb816128ca565b612a04846128df565b81016020851015612a13578190505b612a27612a1f856128df565b8301826129c6565b50505b505050565b600082821c905092915050565b6000612a4d60001984600802612a2f565b1980831691505092915050565b6000612a668383612a3c565b9150826002028217905092915050565b612a7f826123a5565b67ffffffffffffffff811115612a9857612a97612135565b5b612aa28254612899565b612aad8282856129e9565b600060209050601f831160018114612ae05760008415612ace578287015190505b612ad88582612a5a565b865550612b40565b601f198416612aee866128ca565b60005b82811015612b1657848901518255600182019150602085019450602081019050612af1565b86831015612b335784890151612b2f601f891682612a3c565b8355505b6001600288020188555050505b505050505050565b6000612b5382612008565b91507fffffffffffffffffffffffffffffffffffffffffffffffffffffffffffffffff8203612b8557612b846127a1565b5b600182019050919050565b6000612bab612ba6612ba18461203e565b61294e565b61203e565b9050919050565b6000612bbd82612b90565b9050919050565b6000612bcf82612bb2565b9050919050565b612bdf81612bc4565b82525050565b6000608082019050612bfa6000830187612bd6565b8181036020830152612c0c81866123eb565b90508181036040830152612c2081856123eb565b9050612c2f60608301846122ff565b95945050505050565b7f6f6e6c792073656c6c6572000000000000000000000000000000000000000000600082015250565b6000612c6e600b836123b0565b9150612c7982612c38565b602082019050919050565b60006020820190508181036000830152612c9d81612c61565b9050919050565b7f77726f6e672061756374696f6e20696400000000000000000000000000000000600082015250565b6000612cda6010836123b0565b9150612ce582612ca4565b602082019050919050565b60006020820190508181036000830152612d0981612ccd565b9050919050565b7f73656c6c65722062696400000000000000000000000000000000000000000000600082015250565b6000612d46600a836123b0565b9150612d5182612d10565b602082019050919050565b60006020820190508181036000830152612d7581612d39565b9050919050565b7f6c657373207468616e206d696e696d756d207072696365000000000000000000600082015250565b6000612db26017836123b0565b9150612dbd82612d7c565b602082019050919050565b60006020820190508181036000830152612de181612da5565b9050919050565b6000612df382612008565b9150612dfe83612008565b9250828201905080821115612e1657612e156127a1565b5b92915050565b7f4e6f742073616d652076616c7565206173207468652070726562696400000000600082015250565b6000612e52601c836123b0565b9150612e5d82612e1c565b602082019050919050565b60006020820190508181036000830152612e8181612e45565b9050919050565b60008160601b9050919050565b6000612ea082612e88565b9050919050565b6000612eb282612e95565b9050919050565b612eca612ec58261205e565b612ea7565b82525050565b6000819050919050565b612eeb612ee682612008565b612ed0565b82525050565b6000612efd8285612eb9565b601482019150612f0d8284612eda565b6020820191508190509392505050565b7f73656c6c65722072657665616c00000000000000000000000000000000000000600082015250565b6000612f53600d836123b0565b9150612f5e82612f1d565b602082019050919050565b60006020820190508181036000830152612f8281612f46565b905091905056fea2646970667358221220e4f22816233f3c23c9d1d1821eb683a4e23a1cf1e57f40b571f5e9621b3b014464736f6c63430008110033",
  "immutableReferences": {},
  "source": "// SPDX-License-Identifier: MIT\npragma solidity ^0.8.0;\n\ncontract BlindAuction {\n\n  struct Bidder {\n    address payable addr;                                   // \n    bytes32 blindedBid;                                     //  \n  }\n\n  mapping(address => mapping(uint => uint)) bids;           // ->->\n  mapping(address => mapping(uint => uint)) biddersNumber;  // ->->\n\n  //   \n  // Prebid - 0; Bidding - 1; Reveal - 2; Done - 3;\n  enum Phase { Prebid, Bidding, Reveal, Done }\n\n  struct Auction {\n    uint auctionId;               //  \n    address payable seller;       // \n    string title;                 // \n    string description;           // \n    uint minimumPrice;            //  \n\n    Bidder[] bidders;             // \n    uint prebidderCount;          //  \n    uint bidderCount;             //  \n    uint revealCount;             //  \n    address highestBidder;        //  \n    uint highestBid;              //  \n\n    Phase currentPhase;           //  (enum)\n    uint phaseBlockNumber;        //  \n  }\n\n  uint public numAuctions;\n  Auction[] public auctions;\n\n  // get auction bidders\n  function getAuctionBidders(uint _auctionId) external view returns(Bidder [] memory) {\n    Auction memory auction = auctions[_auctionId];\n    return auction.bidders;\n  }\n\n  event AuctionCreated(\n    address _seller,\n    string _title,\n    string _description,\n    uint _minimumPrice\n  );\n\n  //  \n  function createAuction(\n    address payable _seller,\n    string memory _title,\n    string memory _description,\n    uint _minimumPrice\n  ) public returns (uint) {\n    // create auction\n    auctions.push();\n    Auction storage auction = auctions[numAuctions];\n    // put auction data\n    auction.auctionId = numAuctions;\n    auction.seller = _seller;\n    auction.title = _title;\n    auction.description = _description;\n    auction.minimumPrice = _minimumPrice;\n    auction.phaseBlockNumber = block.number;\n    // increase auction count\n    numAuctions++;\n    // event\n    emit AuctionCreated(\n      _seller,\n      _title,\n      _description,\n      _minimumPrice\n    );\n    // return auction id\n    return auction.auctionId;\n  }\n\n  event AuctionPrebid(\n    uint _auctionId,\n    address _bidder,\n    uint _value\n  );\n\n  // \n  function prebid(uint _auctionId, uint _value) public {\n    // check valid\n    Auction storage auction = auctions[_auctionId]; \n    require(msg.sender != auction.seller, \"seller bid\");                // check no seller\n    require(_auctionId <= numAuctions, \"wrong auction id\");             // check auction id\n    require(auction.currentPhase == Phase.Prebid, \"phase error\");       // check phase\n    require(_value > auction.minimumPrice, \"less than minimum price\");  // check minimun price\n    \n    // push prebid\n    bids[msg.sender][_auctionId] = _value;\n    // increase count\n    auction.prebidderCount++;\n    // change phase\n    if (block.number >= auction.phaseBlockNumber + 10) {\n      auction.phaseBlockNumber = block.number;\n      auction.currentPhase = Phase.Bidding;\n    }\n    // event\n    emit AuctionPrebid(_auctionId, msg.sender, _value);\n  }\n\n  //    \n  function getMyBid(uint _auctionId) external view returns (uint) {\n    Auction memory auction = auctions[_auctionId];\n    require(msg.sender != auction.seller, \"seller bid\");                // check no seller\n    require(_auctionId <= numAuctions, \"wrong auction id\");             // check auction id\n    return bids[msg.sender][_auctionId];\n  }\n\n  event AuctionBid(uint _auctionId, address _bidder, uint _value);\n\n  // ()\n  function bid(uint _auctionId) public payable {\n    // check valid\n    Auction storage auction = auctions[_auctionId];\n    require(msg.sender != auction.seller, \"seller bid\");                                // check no seller\n    require(_auctionId <= numAuctions, \"wrong auction id\");                             // check auction id\n    require(auction.currentPhase == Phase.Bidding, \"phase error\");                      // check phase\n    require(msg.value == bids[msg.sender][_auctionId], \"Not same value as the prebid\"); // check prebid bid value\n\n    // hashing(address, value)\n    bytes32 _blindedBid = keccak256(abi.encodePacked(msg.sender, msg.value));\n    // push bid\n    auction.bidders.push(\n      Bidder(payable(msg.sender), _blindedBid)\n    );\n    // increase count\n    auction.bidderCount++;\n    // change phase\n    if (auction.prebidderCount == auction.bidderCount) {\n      auction.phaseBlockNumber = block.number;\n      auction.currentPhase = Phase.Reveal;\n    } \n    if (block.number >= auction.phaseBlockNumber + 10) {\n      auction.phaseBlockNumber = block.number;\n      auction.currentPhase = Phase.Reveal;\n    }\n    // event\n    emit AuctionBid(_auctionId, msg.sender, msg.value);\n  }\n\n  event NowHighestBidder(uint _auctionId, address _bidder, uint _value);\n  event BidFail(uint _auctionId, address _bidder, uint _value);\n\n  event AuctionReveal(uint _auctionId, address _bidder, uint _value);\n  // \n  function reveal(uint _auctionId , uint _value) public {\n    // check valid\n    Auction storage auction = auctions[_auctionId];\n    require(msg.sender != auction.seller, \"seller reveal\");                             // check no seller\n    require(_auctionId <= numAuctions, \"wrong auction id\");                             // check auction id\n    require(auction.currentPhase == Phase.Reveal, \"phase error\");                       // check phase\n    require(_value == bids[msg.sender][_auctionId], \"Not same value as the prebid\");    // check bid value\n\n    // check bid result\n    if (placeBid(_auctionId, msg.sender, _value)) {\n      emit NowHighestBidder(_auctionId, msg.sender, _value);\n    } else {\n      emit BidFail(_auctionId, msg.sender, _value);\n      // withdraw\n      withdraw(_auctionId, msg.sender);\n    }\n    // increase count\n    auction.revealCount++;\n    // change phase\n    if (auction.bidderCount == auction.revealCount) {\n      auction.phaseBlockNumber = block.number;\n      auction.currentPhase = Phase.Done;\n    } \n    if (block.number >= auction.phaseBlockNumber + 10) {\n      auction.phaseBlockNumber = block.number;\n      auction.currentPhase = Phase.Done;\n    }\n    // rest bidder withdraw\n    if (auction.currentPhase == Phase.Done) {\n      if (auction.bidders.length > 0) {\n        for (uint i = 0; i < auction.bidders.length; i++) {\n          if (auction.highestBidder != auction.bidders[i].addr) {\n            withdraw(_auctionId, auction.bidders[i].addr);\n          }\n        }\n      }\n    }\n    // event\n    emit AuctionReveal(_auctionId, msg.sender, _value);\n  }\n\n  //  \n  function placeBid(uint _auctionId, address _bidder, uint _value) internal returns (bool success) {\n    Auction storage auction = auctions[_auctionId];\n    if (auction.highestBidder != address(0)) {\n      if (_value <= auction.highestBid) {\n        return false;\n      } \n    }\n    // set highest bid & bidder\n    auction.highestBid = _value;\n    auction.highestBidder = _bidder;\n\n\n    return true;\n  }\n\n  event Withdraw(uint _auctionId, address _bidder, uint _value);\n  //  \n  function withdraw(uint _auctionId, address _bidder) public {\n    // check valid\n    Auction storage auction = auctions[_auctionId];\n    require(auction.currentPhase == Phase.Reveal || auction.currentPhase == Phase.Done, \"phase error\");         // check phase\n    uint amount = bids[_bidder][_auctionId];\n    require(amount > 0, \"No return amount\");                                                                    // check withdraw amount\n    // bidders pop\n    uint _index = biddersNumber[_bidder][_auctionId];\n    auction.bidders[_index] = auction.bidders[auction.bidders.length - 1];\n    auction.bidders.pop();\n    // withdraw bid\n    bids[_bidder][_auctionId] = 0;\n    payable(_bidder).transfer(amount);\n    // event\n    emit Withdraw(_auctionId, _bidder, amount);\n  }\n\n  event AuctionEnded(uint _auctionId, address _highestBidder, uint _highestBid);\n  //     \n  function auctionEnd(uint _auctionId) public payable {\n    // check valid\n    Auction storage auction = auctions[_auctionId];\n    require(msg.sender == auction.seller, \"only seller\");           // check only seller\n    require(_auctionId <= numAuctions, \"wrong auction id\");         // check auction id\n    require(auction.currentPhase == Phase.Done);                    // check phase\n\n    // seller get highest bid\n    if(address(this).balance >= auction.highestBid) {\n      uint winningBid = auction.highestBid;\n      auction.highestBid = 0;\n      auction.seller.transfer(winningBid);\n    }\n    emit AuctionEnded(_auctionId, auction.highestBidder, auction.highestBid);\n  }\n\n  // Testing \n  function getCurrentBlockNumber() public view returns(uint) {\n    return block.number;\n  }\n\n  uint testingNumber;\n  function generateBlock() public {\n    testingNumber++;\n  }\n}",
  "sourcePath": "/home/huketo/BlindAuction-Dapp/BlindAuction-contract/contracts/BlindAuction.sol",
  "compiler": {
    "name": "solc",
    "version": "0.8.17+commit.8df45f5f.Emscripten.clang"
  },
  "schemaVersion": "3.4.10",
  "updatedAt": "2022-10-24T08:34:27.150Z",
  "networkType": "ethereum",
  "devdoc": {
    "kind": "dev",
    "methods": {},
    "version": 1
  },
  "userdoc": {
    "kind": "user",
    "methods": {},
    "version": 1
  }
}