{
  "contractName": "BlindAuction",
  "abi": [
    {
      "anonymous": false,
      "inputs": [
        {
          "indexed": false,
          "internalType": "uint256",
          "name": "_auctionId",
          "type": "uint256"
        },
        {
          "indexed": false,
          "internalType": "address",
          "name": "_bidder",
          "type": "address"
        },
        {
          "indexed": false,
          "internalType": "uint256",
          "name": "_value",
          "type": "uint256"
        }
      ],
      "name": "AuctionBid",
      "type": "event"
    },
    {
      "anonymous": false,
      "inputs": [],
      "name": "AuctionCreated",
      "type": "event"
    },
    {
      "anonymous": false,
      "inputs": [
        {
          "indexed": false,
          "internalType": "uint256",
          "name": "_auctionId",
          "type": "uint256"
        },
        {
          "indexed": false,
          "internalType": "address",
          "name": "_highestBidder",
          "type": "address"
        },
        {
          "indexed": false,
          "internalType": "uint256",
          "name": "_highestBid",
          "type": "uint256"
        }
      ],
      "name": "AuctionEnded",
      "type": "event"
    },
    {
      "anonymous": false,
      "inputs": [
        {
          "indexed": false,
          "internalType": "uint256",
          "name": "_auctionId",
          "type": "uint256"
        },
        {
          "indexed": false,
          "internalType": "address",
          "name": "_bidder",
          "type": "address"
        },
        {
          "indexed": false,
          "internalType": "uint256",
          "name": "_value",
          "type": "uint256"
        }
      ],
      "name": "AuctionPrebid",
      "type": "event"
    },
    {
      "anonymous": false,
      "inputs": [
        {
          "indexed": false,
          "internalType": "uint256",
          "name": "_auctionId",
          "type": "uint256"
        },
        {
          "indexed": false,
          "internalType": "address",
          "name": "_bidder",
          "type": "address"
        },
        {
          "indexed": false,
          "internalType": "uint256",
          "name": "_value",
          "type": "uint256"
        }
      ],
      "name": "AuctionReveal",
      "type": "event"
    },
    {
      "anonymous": false,
      "inputs": [
        {
          "indexed": false,
          "internalType": "uint256",
          "name": "_auctionId",
          "type": "uint256"
        },
        {
          "indexed": false,
          "internalType": "address",
          "name": "_bidder",
          "type": "address"
        },
        {
          "indexed": false,
          "internalType": "uint256",
          "name": "_value",
          "type": "uint256"
        }
      ],
      "name": "BidFail",
      "type": "event"
    },
    {
      "anonymous": false,
      "inputs": [
        {
          "indexed": false,
          "internalType": "uint256",
          "name": "_auctionId",
          "type": "uint256"
        },
        {
          "indexed": false,
          "internalType": "address",
          "name": "_bidder",
          "type": "address"
        },
        {
          "indexed": false,
          "internalType": "uint256",
          "name": "_value",
          "type": "uint256"
        }
      ],
      "name": "NowHighestBidder",
      "type": "event"
    },
    {
      "anonymous": false,
      "inputs": [
        {
          "indexed": false,
          "internalType": "uint256",
          "name": "_auctionId",
          "type": "uint256"
        },
        {
          "indexed": false,
          "internalType": "address",
          "name": "_bidder",
          "type": "address"
        },
        {
          "indexed": false,
          "internalType": "uint256",
          "name": "_value",
          "type": "uint256"
        }
      ],
      "name": "Withdraw",
      "type": "event"
    },
    {
      "inputs": [
        {
          "internalType": "uint256",
          "name": "",
          "type": "uint256"
        }
      ],
      "name": "auctions",
      "outputs": [
        {
          "internalType": "uint256",
          "name": "auctionId",
          "type": "uint256"
        },
        {
          "internalType": "address payable",
          "name": "seller",
          "type": "address"
        },
        {
          "internalType": "string",
          "name": "title",
          "type": "string"
        },
        {
          "internalType": "string",
          "name": "description",
          "type": "string"
        },
        {
          "internalType": "uint256",
          "name": "minimumPrice",
          "type": "uint256"
        },
        {
          "internalType": "uint256",
          "name": "prebidderCount",
          "type": "uint256"
        },
        {
          "internalType": "uint256",
          "name": "revealedCount",
          "type": "uint256"
        },
        {
          "internalType": "address",
          "name": "highestBidder",
          "type": "address"
        },
        {
          "internalType": "uint256",
          "name": "highestBid",
          "type": "uint256"
        },
        {
          "internalType": "enum BlindAuction.Phase",
          "name": "currentPhase",
          "type": "uint8"
        },
        {
          "internalType": "uint256",
          "name": "phaseBlockNumber",
          "type": "uint256"
        },
        {
          "internalType": "bool",
          "name": "isAuctionEnd",
          "type": "bool"
        }
      ],
      "stateMutability": "view",
      "type": "function",
      "constant": true
    },
    {
      "inputs": [],
      "name": "numAuctions",
      "outputs": [
        {
          "internalType": "uint256",
          "name": "",
          "type": "uint256"
        }
      ],
      "stateMutability": "view",
      "type": "function",
      "constant": true
    },
    {
      "inputs": [
        {
          "internalType": "uint256",
          "name": "_auctionId",
          "type": "uint256"
        }
      ],
      "name": "getAuctionBidders",
      "outputs": [
        {
          "components": [
            {
              "internalType": "address payable",
              "name": "addr",
              "type": "address"
            },
            {
              "internalType": "bytes32",
              "name": "blindedBid",
              "type": "bytes32"
            },
            {
              "internalType": "bool",
              "name": "revealed",
              "type": "bool"
            }
          ],
          "internalType": "struct BlindAuction.Bidder[]",
          "name": "",
          "type": "tuple[]"
        }
      ],
      "stateMutability": "view",
      "type": "function",
      "constant": true
    },
    {
      "inputs": [
        {
          "internalType": "address payable",
          "name": "_seller",
          "type": "address"
        },
        {
          "internalType": "string",
          "name": "_title",
          "type": "string"
        },
        {
          "internalType": "string",
          "name": "_description",
          "type": "string"
        },
        {
          "internalType": "uint256",
          "name": "_minimumPrice",
          "type": "uint256"
        }
      ],
      "name": "createAuction",
      "outputs": [
        {
          "internalType": "uint256",
          "name": "",
          "type": "uint256"
        }
      ],
      "stateMutability": "nonpayable",
      "type": "function"
    },
    {
      "inputs": [
        {
          "internalType": "uint256",
          "name": "_auctionId",
          "type": "uint256"
        },
        {
          "internalType": "uint256",
          "name": "_value",
          "type": "uint256"
        }
      ],
      "name": "prebid",
      "outputs": [],
      "stateMutability": "nonpayable",
      "type": "function"
    },
    {
      "inputs": [
        {
          "internalType": "uint256",
          "name": "_auctionId",
          "type": "uint256"
        }
      ],
      "name": "getMyBid",
      "outputs": [
        {
          "internalType": "uint256",
          "name": "",
          "type": "uint256"
        }
      ],
      "stateMutability": "view",
      "type": "function",
      "constant": true
    },
    {
      "inputs": [
        {
          "internalType": "uint256",
          "name": "_auctionId",
          "type": "uint256"
        }
      ],
      "name": "bid",
      "outputs": [],
      "stateMutability": "payable",
      "type": "function",
      "payable": true
    },
    {
      "inputs": [
        {
          "internalType": "uint256",
          "name": "_auctionId",
          "type": "uint256"
        },
        {
          "internalType": "uint256",
          "name": "_value",
          "type": "uint256"
        }
      ],
      "name": "reveal",
      "outputs": [],
      "stateMutability": "nonpayable",
      "type": "function"
    },
    {
      "inputs": [
        {
          "internalType": "uint256",
          "name": "_auctionId",
          "type": "uint256"
        }
      ],
      "name": "withdraw",
      "outputs": [],
      "stateMutability": "nonpayable",
      "type": "function"
    },
    {
      "inputs": [
        {
          "internalType": "uint256",
          "name": "_auctionId",
          "type": "uint256"
        }
      ],
      "name": "auctionEnd",
      "outputs": [],
      "stateMutability": "nonpayable",
      "type": "function"
    },
    {
      "inputs": [],
      "name": "getCurrentBlockNumber",
      "outputs": [
        {
          "internalType": "uint256",
          "name": "",
          "type": "uint256"
        }
      ],
      "stateMutability": "view",
      "type": "function",
      "constant": true
    },
    {
      "inputs": [],
      "name": "generateBlock",
      "outputs": [],
      "stateMutability": "nonpayable",
      "type": "function"
    }
  ],
  "bytecode": "0x608060405234801561001057600080fd5b50611bcb806100206000396000f3fe6080604052600436106100c4576000357c0100000000000000000000000000000000000000000000000000000000900480635c113acc116100815780635c113acc146101a95780636fd902e1146101bf578063763e4ad7146101d25780638df6d6e6146101e75780639348cef714610207578063df2764691461022757600080fd5b80631e1392a4146100c95780632e1a7d4d146100fc57806332246e9f1461011e578063379e90301461013e578063454a2ab31461015e578063571a26a014610171575b600080fd5b3480156100d557600080fd5b506100e96100e4366004611718565b610254565b6040519081526020015b60405180910390f35b34801561010857600080fd5b5061011c6101173660046117a2565b610330565b005b34801561012a57600080fd5b5061011c6101393660046117a2565b610531565b34801561014a57600080fd5b5061011c6101593660046117bb565b6106b3565b61011c61016c3660046117a2565b6108df565b34801561017d57600080fd5b5061019161018c3660046117a2565b610b70565b6040516100f39c9b9a9998979695949392919061183c565b3480156101b557600080fd5b506100e960035481565b3480156101cb57600080fd5b50436100e9565b3480156101de57600080fd5b5061011c610d0b565b3480156101f357600080fd5b506100e96102023660046117a2565b610d22565b34801561021357600080fd5b5061011c6102223660046117bb565b611063565b34801561023357600080fd5b506102476102423660046117a2565b61133f565b6040516100f391906118ee565b60048054600101808255600082815260035490928392909190811061027b5761027b611952565b60009182526020909120600354600d9092020190815560018101805473ffffffffffffffffffffffffffffffffffffffff1916600160a060020a0389161790559050600281016102cb86826119f7565b50600381016102da85826119f7565b506004810183905543600b820155600380549060006102f883611ad6565b90915550506040517fd3a5f6ff4ebcf321d7f06702bdd20b4c9f78616c9cc96c946d930e06e971444490600090a15495945050505050565b60006004828154811061034557610345611952565b60009182526020909120600d90910201600181015490915033600160a060020a03909116036103be5760405160e560020a62461bcd02815260206004820152600f60248201527f73656c6c6572207769746864726177000000000000000000000000000000000060448201526064015b60405180910390fd5b600881015433600160a060020a039091160361041f5760405160e560020a62461bcd02815260206004820152600f60248201527f77696e6e6572207769746864726177000000000000000000000000000000000060448201526064016103b5565b6003600a82015460ff16600381111561043a5761043a611823565b1461045a5760405160e560020a62461bcd0281526004016103b590611aef565b33600090815260208181526040808320858452909152902054806104c35760405160e560020a62461bcd02815260206004820152601060248201527f4e6f2072657475726e20616d6f756e740000000000000000000000000000000060448201526064016103b5565b604051339082156108fc029083906000818181858888f193505050501580156104f0573d6000803e3d6000fd5b507f9da6493a92039daf47d1f2d7a782299c5994c6323eb1e972f69c432089ec52bf83338360405161052493929190611b26565b60405180910390a1505050565b60006004828154811061054657610546611952565b60009182526020909120600d909102016001810154909150600160a060020a031633146105b85760405160e560020a62461bcd02815260206004820152600b60248201527f6f6e6c792073656c6c657200000000000000000000000000000000000000000060448201526064016103b5565b6003548211156105dd5760405160e560020a62461bcd0281526004016103b590611b45565b6003600a82015460ff1660038111156105f8576105f8611823565b1461060257600080fd5b60098101543031106106525760098101546001820154604051600160a060020a039091169082156108fc029083906000818181858888f1935050505015801561064f573d6000803e3d6000fd5b50505b600c8101805460ff19166001179055600881015460098201546040517fd2aa34a4fdbbc6dff6a3e56f46e0f3ae2a31d7785ff3487aa5c95c642acea501926106a7928692600160a060020a0390921691611b26565b60405180910390a15050565b6000600483815481106106c8576106c8611952565b60009182526020909120600d909102016001810154909150600160a060020a0316330361073a5760405160e560020a62461bcd02815260206004820152601060248201527f5f5f5f73656c6c6572206269645f5f5f0000000000000000000000000000000060448201526064016103b5565b60035483111561078f5760405160e560020a62461bcd02815260206004820152601660248201527f5f5f5f77726f6e672061756374696f6e2069645f5f5f0000000000000000000060448201526064016103b5565b6000600a82015460ff1660038111156107aa576107aa611823565b146107fa5760405160e560020a62461bcd02815260206004820152601160248201527f5f5f5f7068617365206572726f725f5f5f00000000000000000000000000000060448201526064016103b5565b806004015482116108505760405160e560020a62461bcd02815260206004820152601d60248201527f5f5f5f6c657373207468616e206d696e696d756d2070726963655f5f5f00000060448201526064016103b5565b3360009081526020818152604080832086845290915281208390556006820180549161087b83611ad6565b9091555050600b810154610890906003611b7c565b43106108ac5743600b820155600a8101805460ff191660011790555b7f63404806fdb0ebf1efaf366c0ef00621065d328975255a3e51866cf6812ec42d83338460405161052493929190611b26565b6000600482815481106108f4576108f4611952565b60009182526020909120600d909102016001810154909150600160a060020a031633036109665760405160e560020a62461bcd02815260206004820152600a60248201527f73656c6c6572206269640000000000000000000000000000000000000000000060448201526064016103b5565b60035482111561098b5760405160e560020a62461bcd0281526004016103b590611b45565b6001600a82015460ff1660038111156109a6576109a6611823565b146109c65760405160e560020a62461bcd0281526004016103b590611aef565b336000908152602081815260408083208584529091529020543414610a305760405160e560020a62461bcd02815260206004820152601c60248201527f4e6f742073616d652076616c756520617320746865207072656269640000000060448201526064016103b5565b6040516c010000000000000000000000003302602082015234603482015260009060540160408051808303601f1901815282825280516020918201206060840183523384528184018181526000938501848152600588018054600180820183558288529590962096516003909602909601805473ffffffffffffffffffffffffffffffffffffffff1916600160a060020a0390961695909517855590519284019290925590516002909201805460ff191692151592909217909155905460068401549192509003610b115743600b830155600a8201805460ff191660021790555b600b820154610b21906003611b7c565b4310610b3d5743600b830155600a8201805460ff191660021790555b7fb8d756f2d1da4663767eb4d559780ace84f2f65a421a60ddcb47e8b2e5d2fd2683333460405161052493929190611b26565b60048181548110610b8057600080fd5b60009182526020909120600d9091020180546001820154600283018054929450600160a060020a039091169291610bb69061196b565b80601f0160208091040260200160405190810160405280929190818152602001828054610be29061196b565b8015610c2f5780601f10610c0457610100808354040283529160200191610c2f565b820191906000526020600020905b815481529060010190602001808311610c1257829003601f168201915b505050505090806003018054610c449061196b565b80601f0160208091040260200160405190810160405280929190818152602001828054610c709061196b565b8015610cbd5780601f10610c9257610100808354040283529160200191610cbd565b820191906000526020600020905b815481529060010190602001808311610ca057829003601f168201915b50505060048401546006850154600786015460088701546009880154600a890154600b8a0154600c909a015498999598949750929550600160a060020a0390911693909260ff92831692168c565b60028054906000610d1b83611ad6565b9190505550565b60008060048381548110610d3857610d38611952565b90600052602060002090600d0201604051806101a0016040529081600082015481526020016001820160009054906101000a9004600160a060020a0316600160a060020a0316600160a060020a03168152602001600282018054610d9b9061196b565b80601f0160208091040260200160405190810160405280929190818152602001828054610dc79061196b565b8015610e145780601f10610de957610100808354040283529160200191610e14565b820191906000526020600020905b815481529060010190602001808311610df757829003601f168201915b50505050508152602001600382018054610e2d9061196b565b80601f0160208091040260200160405190810160405280929190818152602001828054610e599061196b565b8015610ea65780601f10610e7b57610100808354040283529160200191610ea6565b820191906000526020600020905b815481529060010190602001808311610e8957829003601f168201915b505050505081526020016004820154815260200160058201805480602002602001604051908101604052809291908181526020016000905b82821015610f3857600084815260209081902060408051606081018252600386029092018054600160a060020a031683526001808201548486015260029091015460ff161515918301919091529083529092019101610ede565b5050509082525060068201546020820152600782015460408201526008820154600160a060020a0316606082015260098201546080820152600a82015460a09091019060ff166003811115610f8f57610f8f611823565b6003811115610fa057610fa0611823565b8152600b820154602080830191909152600c9092015460ff161515604090910152810151909150600160a060020a031633036110215760405160e560020a62461bcd02815260206004820152600a60248201527f73656c6c6572206269640000000000000000000000000000000000000000000060448201526064016103b5565b6003548311156110465760405160e560020a62461bcd0281526004016103b590611b45565b505033600090815260208181526040808320938352929052205490565b60006004838154811061107857611078611952565b60009182526020909120600d909102016001810154909150600160a060020a031633036110ea5760405160e560020a62461bcd02815260206004820152600d60248201527f73656c6c65722072657665616c0000000000000000000000000000000000000060448201526064016103b5565b60035483111561110f5760405160e560020a62461bcd0281526004016103b590611b45565b6002600a82015460ff16600381111561112a5761112a611823565b1461114a5760405160e560020a62461bcd0281526004016103b590611aef565b3360009081526020818152604080832086845290915290205482146111b45760405160e560020a62461bcd02815260206004820152601c60248201527f4e6f742073616d652076616c756520617320746865207072656269640000000060448201526064016103b5565b6111bf8333846115e6565b15611204577f0c350e4684fc5e7452b482d1e567d9c28bfbcb68e3ddeafcf1b02be0795c20468333846040516111f793929190611b26565b60405180910390a1611240565b7fdec763f705daa0568e8064eadf6552a633af67f362ccec95529583c487fdeb4283338460405161123793929190611b26565b60405180910390a15b336000908152600160208181526040808420878552909152909120546005830180549192918390811061127557611275611952565b60009182526020822060039190910201600201805460ff191692151592909217909155600783018054916112a883611ad6565b909155505060078201546005830154036112d25743600b830155600a8201805460ff191660031790555b600b8201546112e2906003611b7c565b43106112fe5743600b830155600a8201805460ff191660031790555b7f0863348440b3315f6437735aeabf78d3884af77f04c7bc3e999262c2957da5b984338560405161133193929190611b26565b60405180910390a150505050565b606060006004838154811061135657611356611952565b90600052602060002090600d0201604051806101a0016040529081600082015481526020016001820160009054906101000a9004600160a060020a0316600160a060020a0316600160a060020a031681526020016002820180546113b99061196b565b80601f01602080910402602001604051908101604052809291908181526020018280546113e59061196b565b80156114325780601f1061140757610100808354040283529160200191611432565b820191906000526020600020905b81548152906001019060200180831161141557829003601f168201915b5050505050815260200160038201805461144b9061196b565b80601f01602080910402602001604051908101604052809291908181526020018280546114779061196b565b80156114c45780601f10611499576101008083540402835291602001916114c4565b820191906000526020600020905b8154815290600101906020018083116114a757829003601f168201915b505050505081526020016004820154815260200160058201805480602002602001604051908101604052809291908181526020016000905b8282101561155657600084815260209081902060408051606081018252600386029092018054600160a060020a031683526001808201548486015260029091015460ff1615159183019190915290835290920191016114fc565b5050509082525060068201546020820152600782015460408201526008820154600160a060020a0316606082015260098201546080820152600a82015460a09091019060ff1660038111156115ad576115ad611823565b60038111156115be576115be611823565b8152600b8201546020820152600c9091015460ff16151560409091015260a001519392505050565b600080600485815481106115fc576115fc611952565b60009182526020909120600d909102016008810154909150600160a060020a031615611637578060090154831161163757600091505061166b565b60098101839055600801805473ffffffffffffffffffffffffffffffffffffffff1916600160a060020a0385161790555060015b9392505050565b60e060020a634e487b7102600052604160045260246000fd5b600082601f83011261169c57600080fd5b813567ffffffffffffffff808211156116b7576116b7611672565b604051601f8301601f19908116603f011681019082821181831017156116df576116df611672565b816040528381528660208588010111156116f857600080fd5b836020870160208301376000602085830101528094505050505092915050565b6000806000806080858703121561172e57600080fd5b8435600160a060020a038116811461174557600080fd5b9350602085013567ffffffffffffffff8082111561176257600080fd5b61176e8883890161168b565b9450604087013591508082111561178457600080fd5b506117918782880161168b565b949793965093946060013593505050565b6000602082840312156117b457600080fd5b5035919050565b600080604083850312156117ce57600080fd5b50508035926020909101359150565b6000815180845260005b81811015611803576020818501810151868301820152016117e7565b506000602082860101526020601f19601f83011685010191505092915050565b60e060020a634e487b7102600052602160045260246000fd5b60006101808e8352600160a060020a03808f1660208501528160408501526118668285018f6117dd565b9150838203606085015261187a828e6117dd565b92508b60808501528a60a08501528960c085015280891660e0850152505085610100830152600485106118c05760e060020a634e487b7102600052602160045260246000fd5b84610120830152836101408301526118dd61016083018415159052565b9d9c50505050505050505050505050565b602080825282518282018190526000919060409081850190868401855b828110156119455781518051600160a060020a0316855286810151878601528501511515858501526060909301929085019060010161190b565b5091979650505050505050565b60e060020a634e487b7102600052603260045260246000fd5b60028104600182168061197f57607f821691505b6020821081036119a25760e060020a634e487b7102600052602260045260246000fd5b50919050565b601f8211156119f2576000818152602081206020601f860104810160208610156119cf5750805b6020601f860104820191505b818110156119ee578281556001016119db565b5050505b505050565b815167ffffffffffffffff811115611a1157611a11611672565b611a2581611a1f845461196b565b846119a8565b602080601f831160018114611a5e5760008415611a425750858301515b60028086026008870290910a60001904198216178655506119ee565b600085815260208120601f198616915b82811015611a8d57888601518255948401946001909101908401611a6e565b5085821015611aad57878501516008601f88160260020a60001904191681555b5050505050600202600101905550565b60e060020a634e487b7102600052601160045260246000fd5b600060018201611ae857611ae8611abd565b5060010190565b6020808252600b908201527f7068617365206572726f72000000000000000000000000000000000000000000604082015260600190565b928352600160a060020a03919091166020830152604082015260600190565b60208082526010908201527f77726f6e672061756374696f6e20696400000000000000000000000000000000604082015260600190565b80820180821115611b8f57611b8f611abd565b9291505056fea264697066735822122033b51874f8b7971de0f11e323d09c131ce72a598b8af252af82150cb1ea82cf664736f6c63430008110033",
  "immutableReferences": {},
  "source": "// SPDX-License-Identifier: MIT\npragma solidity ^0.8.0;\n\ncontract BlindAuction {\n    struct Bidder {\n        address payable addr; // \n        bytes32 blindedBid; //  \n        bool revealed; //  \n    }\n\n    struct Auction {\n        uint256 auctionId; //  \n        address payable seller; // \n        string title; // \n        string description; // \n        uint256 minimumPrice; //  \n        Bidder[] bidders; // \n        uint256 prebidderCount; //  \n        uint256 revealedCount; //  \n        address highestBidder; //  \n        uint256 highestBid; //  \n        Phase currentPhase; //  (enum)\n        uint256 phaseBlockNumber; //  \n        bool isAuctionEnd; //  \n    }\n\n    //   \n    // Prebid - 0; Bidding - 1; Reveal - 2; Done - 3;\n    enum Phase {\n        Prebid,\n        Bidding,\n        Reveal,\n        Done\n    }\n\n    mapping(address => mapping(uint256 => uint256)) bids; // ->->\n    mapping(address => mapping(uint256 => uint256)) biddersNumber; // ->->\n\n    uint256 testingNumber;\n    uint256 public numAuctions;\n    Auction[] public auctions;\n\n    // events\n    // auction phase events\n    event AuctionCreated();\n    event AuctionPrebid(uint256 _auctionId, address _bidder, uint256 _value);\n    event AuctionBid(uint256 _auctionId, address _bidder, uint256 _value);\n    event AuctionReveal(uint256 _auctionId, address _bidder, uint256 _value);\n    // place bidders events\n    event NowHighestBidder(uint256 _auctionId, address _bidder, uint256 _value);\n    event BidFail(uint256 _auctionId, address _bidder, uint256 _value);\n    // withdraw event\n    event Withdraw(uint256 _auctionId, address _bidder, uint256 _value);\n\n    // get auction bidders\n    function getAuctionBidders(uint256 _auctionId)\n        external\n        view\n        returns (Bidder[] memory)\n    {\n        Auction memory auction = auctions[_auctionId];\n        return auction.bidders;\n    }\n\n    //  \n    function createAuction(\n        address payable _seller,\n        string memory _title,\n        string memory _description,\n        uint256 _minimumPrice\n    ) public returns (uint256) {\n        // create auction\n        auctions.push();\n        Auction storage auction = auctions[numAuctions];\n\n        // put auction data\n        auction.auctionId = numAuctions;\n        auction.seller = _seller;\n        auction.title = _title;\n        auction.description = _description;\n        auction.minimumPrice = _minimumPrice;\n        auction.phaseBlockNumber = block.number;\n\n        // increase auction count\n        numAuctions++;\n\n        // event\n        emit AuctionCreated();\n\n        // return auction id\n        return auction.auctionId;\n    }\n\n    // \n    function prebid(uint256 _auctionId, uint256 _value) public {\n        // check valid\n        Auction storage auction = auctions[_auctionId];\n        require(msg.sender != auction.seller, \"___seller bid___\"); // check no seller\n        require(_auctionId <= numAuctions, \"___wrong auction id___\"); // check auction id\n        require(auction.currentPhase == Phase.Prebid, \"___phase error___\"); // check phase\n        require(_value > auction.minimumPrice, \"___less than minimum price___\"); // check minimun price\n\n        // push prebid\n        bids[msg.sender][_auctionId] = _value;\n\n        // increase count\n        auction.prebidderCount++;\n\n        // change phase\n        if (block.number >= auction.phaseBlockNumber + 3) {\n            auction.phaseBlockNumber = block.number;\n            auction.currentPhase = Phase.Bidding;\n        }\n\n        // event\n        emit AuctionPrebid(_auctionId, msg.sender, _value);\n    }\n\n    //    \n    function getMyBid(uint256 _auctionId) external view returns (uint256) {\n        Auction memory auction = auctions[_auctionId];\n        require(msg.sender != auction.seller, \"seller bid\"); // check no seller\n        require(_auctionId <= numAuctions, \"wrong auction id\"); // check auction id\n        return bids[msg.sender][_auctionId];\n    }\n\n    // ()\n    function bid(uint256 _auctionId) public payable {\n        // check valid\n        Auction storage auction = auctions[_auctionId];\n        require(msg.sender != auction.seller, \"seller bid\"); // check no seller\n        require(_auctionId <= numAuctions, \"wrong auction id\"); // check auction id\n        require(auction.currentPhase == Phase.Bidding, \"phase error\"); // check phase\n        require( // check prebid bid value\n            msg.value == bids[msg.sender][_auctionId],\n            \"Not same value as the prebid\"\n        );\n\n        // hashing(address, value)\n        bytes32 _blindedBid = keccak256(\n            abi.encodePacked(msg.sender, msg.value)\n        );\n\n        // push bid\n        auction.bidders.push(Bidder(payable(msg.sender), _blindedBid, false));\n\n        // change phase\n        if (auction.prebidderCount == auction.bidders.length) {\n            auction.phaseBlockNumber = block.number;\n            auction.currentPhase = Phase.Reveal;\n        }\n        if (block.number >= auction.phaseBlockNumber + 3) {\n            auction.phaseBlockNumber = block.number;\n            auction.currentPhase = Phase.Reveal;\n        }\n\n        // event\n        emit AuctionBid(_auctionId, msg.sender, msg.value);\n    }\n\n    // \n    function reveal(uint256 _auctionId, uint256 _value) public {\n        // check valid\n        Auction storage auction = auctions[_auctionId];\n        require(msg.sender != auction.seller, \"seller reveal\"); // check no seller\n        require(_auctionId <= numAuctions, \"wrong auction id\"); // check auction id\n        require(auction.currentPhase == Phase.Reveal, \"phase error\"); // check phase\n        require(\n            _value == bids[msg.sender][_auctionId],\n            \"Not same value as the prebid\"\n        ); // check bid value\n\n        // check bid result\n        if (placeBid(_auctionId, msg.sender, _value)) {\n            emit NowHighestBidder(_auctionId, msg.sender, _value);\n        } else {\n            emit BidFail(_auctionId, msg.sender, _value);\n        }\n\n        // set checked bidder\n        uint256 biddersIndex = biddersNumber[msg.sender][_auctionId];\n        auction.bidders[biddersIndex].revealed = true;\n        auction.revealedCount++;\n\n        // change phase\n        if (auction.bidders.length == auction.revealedCount) {\n            auction.phaseBlockNumber = block.number;\n            auction.currentPhase = Phase.Done;\n        }\n        if (block.number >= auction.phaseBlockNumber + 3) {\n            auction.phaseBlockNumber = block.number;\n            auction.currentPhase = Phase.Done;\n        }\n\n        // event\n        emit AuctionReveal(_auctionId, msg.sender, _value);\n    }\n\n    //  \n    function placeBid(\n        uint256 _auctionId,\n        address _bidder,\n        uint256 _value\n    ) internal returns (bool success) {\n        Auction storage auction = auctions[_auctionId];\n        if (auction.highestBidder != address(0)) {\n            if (_value <= auction.highestBid) {\n                return false;\n            }\n        }\n\n        // set highest bid & bidder\n        auction.highestBid = _value;\n        auction.highestBidder = _bidder;\n\n        return true;\n    }\n\n    //  \n    function withdraw(uint256 _auctionId) public {\n        // check valid\n        Auction storage auction = auctions[_auctionId];\n        require(auction.seller != msg.sender, \"seller withdraw\"); // check seller\n        require(auction.highestBidder != msg.sender, \"winner withdraw\"); // check winner\n        require(auction.currentPhase == Phase.Done, \"phase error\"); // check phase\n        uint256 amount = bids[msg.sender][_auctionId];\n        require(amount > 0, \"No return amount\"); // check withdraw amount\n        // withdraw bid\n        payable(msg.sender).transfer(amount);\n        // event\n        emit Withdraw(_auctionId, msg.sender, amount);\n    }\n\n    event AuctionEnded(\n        uint256 _auctionId,\n        address _highestBidder,\n        uint256 _highestBid\n    );\n\n    //     \n    function auctionEnd(uint256 _auctionId) public {\n        // check valid\n        Auction storage auction = auctions[_auctionId];\n        require(msg.sender == auction.seller, \"only seller\"); // check only seller\n        require(_auctionId <= numAuctions, \"wrong auction id\"); // check auction id\n        require(auction.currentPhase == Phase.Done); // check phase\n\n        // seller get highest bid\n        if (address(this).balance >= auction.highestBid) {\n            uint256 winningBid = auction.highestBid;\n            auction.seller.transfer(winningBid);\n        }\n        // auction end\n        auction.isAuctionEnd = true;\n        // event\n        emit AuctionEnded(\n            _auctionId,\n            auction.highestBidder,\n            auction.highestBid\n        );\n    }\n\n    // Testing for block generate, because phase changing trigger is block number\n    function getCurrentBlockNumber() public view returns (uint256) {\n        return block.number;\n    }\n\n    function generateBlock() public {\n        testingNumber++;\n    }\n}\n",
  "sourcePath": "/home/huketo/BlindAuction-Dapp/BlindAuction-contract/contracts/BlindAuction.sol",
  "compiler": {
    "name": "solc",
    "version": "0.8.17+commit.8df45f5f.Emscripten.clang"
  },
  "schemaVersion": "3.4.10",
  "updatedAt": "2022-10-27T06:33:37.202Z",
  "networkType": "ethereum",
  "devdoc": {
    "kind": "dev",
    "methods": {},
    "version": 1
  },
  "userdoc": {
    "kind": "user",
    "methods": {},
    "version": 1
  }
}