{
  "contractName": "BlindAuction",
  "abi": [
    {
      "anonymous": false,
      "inputs": [
        {
          "indexed": false,
          "internalType": "uint256",
          "name": "_auctionId",
          "type": "uint256"
        },
        {
          "indexed": false,
          "internalType": "address",
          "name": "_bidder",
          "type": "address"
        },
        {
          "indexed": false,
          "internalType": "uint256",
          "name": "_value",
          "type": "uint256"
        }
      ],
      "name": "AuctionBid",
      "type": "event"
    },
    {
      "anonymous": false,
      "inputs": [],
      "name": "AuctionCreated",
      "type": "event"
    },
    {
      "anonymous": false,
      "inputs": [
        {
          "indexed": false,
          "internalType": "uint256",
          "name": "_auctionId",
          "type": "uint256"
        },
        {
          "indexed": false,
          "internalType": "address",
          "name": "_highestBidder",
          "type": "address"
        },
        {
          "indexed": false,
          "internalType": "uint256",
          "name": "_highestBid",
          "type": "uint256"
        }
      ],
      "name": "AuctionEnded",
      "type": "event"
    },
    {
      "anonymous": false,
      "inputs": [
        {
          "indexed": false,
          "internalType": "uint256",
          "name": "_auctionId",
          "type": "uint256"
        },
        {
          "indexed": false,
          "internalType": "address",
          "name": "_bidder",
          "type": "address"
        },
        {
          "indexed": false,
          "internalType": "uint256",
          "name": "_value",
          "type": "uint256"
        }
      ],
      "name": "AuctionPrebid",
      "type": "event"
    },
    {
      "anonymous": false,
      "inputs": [
        {
          "indexed": false,
          "internalType": "uint256",
          "name": "_auctionId",
          "type": "uint256"
        },
        {
          "indexed": false,
          "internalType": "address",
          "name": "_bidder",
          "type": "address"
        },
        {
          "indexed": false,
          "internalType": "uint256",
          "name": "_value",
          "type": "uint256"
        }
      ],
      "name": "AuctionReveal",
      "type": "event"
    },
    {
      "anonymous": false,
      "inputs": [
        {
          "indexed": false,
          "internalType": "uint256",
          "name": "_auctionId",
          "type": "uint256"
        },
        {
          "indexed": false,
          "internalType": "address",
          "name": "_bidder",
          "type": "address"
        },
        {
          "indexed": false,
          "internalType": "uint256",
          "name": "_value",
          "type": "uint256"
        }
      ],
      "name": "BidFail",
      "type": "event"
    },
    {
      "anonymous": false,
      "inputs": [
        {
          "indexed": false,
          "internalType": "uint256",
          "name": "_auctionId",
          "type": "uint256"
        },
        {
          "indexed": false,
          "internalType": "address",
          "name": "_bidder",
          "type": "address"
        },
        {
          "indexed": false,
          "internalType": "uint256",
          "name": "_value",
          "type": "uint256"
        }
      ],
      "name": "NowHighestBidder",
      "type": "event"
    },
    {
      "anonymous": false,
      "inputs": [
        {
          "indexed": false,
          "internalType": "uint256",
          "name": "_auctionId",
          "type": "uint256"
        },
        {
          "indexed": false,
          "internalType": "address",
          "name": "_bidder",
          "type": "address"
        },
        {
          "indexed": false,
          "internalType": "uint256",
          "name": "_value",
          "type": "uint256"
        }
      ],
      "name": "Withdraw",
      "type": "event"
    },
    {
      "inputs": [
        {
          "internalType": "uint256",
          "name": "",
          "type": "uint256"
        }
      ],
      "name": "auctions",
      "outputs": [
        {
          "internalType": "uint256",
          "name": "auctionId",
          "type": "uint256"
        },
        {
          "internalType": "address payable",
          "name": "seller",
          "type": "address"
        },
        {
          "internalType": "string",
          "name": "title",
          "type": "string"
        },
        {
          "internalType": "string",
          "name": "description",
          "type": "string"
        },
        {
          "internalType": "uint256",
          "name": "minimumPrice",
          "type": "uint256"
        },
        {
          "internalType": "uint256",
          "name": "prebidderCount",
          "type": "uint256"
        },
        {
          "internalType": "address",
          "name": "highestBidder",
          "type": "address"
        },
        {
          "internalType": "uint256",
          "name": "highestBid",
          "type": "uint256"
        },
        {
          "internalType": "enum BlindAuction.Phase",
          "name": "currentPhase",
          "type": "uint8"
        },
        {
          "internalType": "uint256",
          "name": "phaseBlockNumber",
          "type": "uint256"
        },
        {
          "internalType": "bool",
          "name": "isAuctionEnd",
          "type": "bool"
        }
      ],
      "stateMutability": "view",
      "type": "function",
      "constant": true
    },
    {
      "inputs": [],
      "name": "numAuctions",
      "outputs": [
        {
          "internalType": "uint256",
          "name": "",
          "type": "uint256"
        }
      ],
      "stateMutability": "view",
      "type": "function",
      "constant": true
    },
    {
      "inputs": [
        {
          "internalType": "uint256",
          "name": "_auctionId",
          "type": "uint256"
        }
      ],
      "name": "getAuctionBidders",
      "outputs": [
        {
          "components": [
            {
              "internalType": "address payable",
              "name": "addr",
              "type": "address"
            },
            {
              "internalType": "bytes32",
              "name": "blindedBid",
              "type": "bytes32"
            }
          ],
          "internalType": "struct BlindAuction.Bidder[]",
          "name": "",
          "type": "tuple[]"
        }
      ],
      "stateMutability": "view",
      "type": "function",
      "constant": true
    },
    {
      "inputs": [
        {
          "internalType": "uint256",
          "name": "_auctionId",
          "type": "uint256"
        }
      ],
      "name": "getAuctionCheckedBidders",
      "outputs": [
        {
          "components": [
            {
              "internalType": "address payable",
              "name": "addr",
              "type": "address"
            },
            {
              "internalType": "uint256",
              "name": "bid",
              "type": "uint256"
            }
          ],
          "internalType": "struct BlindAuction.CheckedBidder[]",
          "name": "",
          "type": "tuple[]"
        }
      ],
      "stateMutability": "view",
      "type": "function",
      "constant": true
    },
    {
      "inputs": [
        {
          "internalType": "address payable",
          "name": "_seller",
          "type": "address"
        },
        {
          "internalType": "string",
          "name": "_title",
          "type": "string"
        },
        {
          "internalType": "string",
          "name": "_description",
          "type": "string"
        },
        {
          "internalType": "uint256",
          "name": "_minimumPrice",
          "type": "uint256"
        }
      ],
      "name": "createAuction",
      "outputs": [
        {
          "internalType": "uint256",
          "name": "",
          "type": "uint256"
        }
      ],
      "stateMutability": "nonpayable",
      "type": "function"
    },
    {
      "inputs": [
        {
          "internalType": "uint256",
          "name": "_auctionId",
          "type": "uint256"
        },
        {
          "internalType": "uint256",
          "name": "_value",
          "type": "uint256"
        }
      ],
      "name": "prebid",
      "outputs": [],
      "stateMutability": "nonpayable",
      "type": "function"
    },
    {
      "inputs": [
        {
          "internalType": "uint256",
          "name": "_auctionId",
          "type": "uint256"
        }
      ],
      "name": "getMyBid",
      "outputs": [
        {
          "internalType": "uint256",
          "name": "",
          "type": "uint256"
        }
      ],
      "stateMutability": "view",
      "type": "function",
      "constant": true
    },
    {
      "inputs": [
        {
          "internalType": "uint256",
          "name": "_auctionId",
          "type": "uint256"
        }
      ],
      "name": "bid",
      "outputs": [],
      "stateMutability": "payable",
      "type": "function",
      "payable": true
    },
    {
      "inputs": [
        {
          "internalType": "uint256",
          "name": "_auctionId",
          "type": "uint256"
        },
        {
          "internalType": "uint256",
          "name": "_value",
          "type": "uint256"
        }
      ],
      "name": "reveal",
      "outputs": [],
      "stateMutability": "nonpayable",
      "type": "function"
    },
    {
      "inputs": [
        {
          "internalType": "uint256",
          "name": "_auctionId",
          "type": "uint256"
        }
      ],
      "name": "withdraw",
      "outputs": [],
      "stateMutability": "nonpayable",
      "type": "function"
    },
    {
      "inputs": [
        {
          "internalType": "uint256",
          "name": "_auctionId",
          "type": "uint256"
        }
      ],
      "name": "auctionEnd",
      "outputs": [],
      "stateMutability": "nonpayable",
      "type": "function"
    },
    {
      "inputs": [],
      "name": "getCurrentBlockNumber",
      "outputs": [
        {
          "internalType": "uint256",
          "name": "",
          "type": "uint256"
        }
      ],
      "stateMutability": "view",
      "type": "function",
      "constant": true
    },
    {
      "inputs": [],
      "name": "generateBlock",
      "outputs": [],
      "stateMutability": "nonpayable",
      "type": "function"
    }
  ],
  "bytecode": "0x608060405234801561001057600080fd5b50611eca806100206000396000f3fe6080604052600436106100df576000357c0100000000000000000000000000000000000000000000000000000000900480635c113acc1161009c5780637bb8ebc2116100765780637bb8ebc2146102015780638df6d6e61461022e5780639348cef71461024e578063df2764691461026e57600080fd5b80635c113acc146101c35780636fd902e1146101d9578063763e4ad7146101ec57600080fd5b80631e1392a4146100e45780632e1a7d4d1461011757806332246e9f14610139578063379e903014610159578063454a2ab314610179578063571a26a01461018c575b600080fd5b3480156100f057600080fd5b506101046100ff3660046119f4565b61028e565b6040519081526020015b60405180910390f35b34801561012357600080fd5b50610137610132366004611a7e565b61036c565b005b34801561014557600080fd5b50610137610154366004611a7e565b610584565b34801561016557600080fd5b50610137610174366004611a97565b610706565b610137610187366004611a7e565b6108a2565b34801561019857600080fd5b506101ac6101a7366004611a7e565b610ae7565b60405161010e9b9a99989796959493929190611b18565b3480156101cf57600080fd5b5061010460025481565b3480156101e557600080fd5b5043610104565b3480156101f857600080fd5b50610137610c7b565b34801561020d57600080fd5b5061022161021c366004611a7e565b610c92565b60405161010e9190611bc2565b34801561023a57600080fd5b50610104610249366004611a7e565b610f92565b34801561025a57600080fd5b50610137610269366004611a97565b6112fc565b34801561027a57600080fd5b50610221610289366004611a7e565b6115c2565b6003805460010180825560008281526002549092839290919081106102b5576102b5611c1a565b6000918252602090912060028054600d90930290910191825560018201805473ffffffffffffffffffffffffffffffffffffffff1916600160a060020a038a1617905590915081016103078682611cbf565b50600381016103168582611cbf565b506004810183905543600b8201556002805490600061033483611d9e565b90915550506040517fd3a5f6ff4ebcf321d7f06702bdd20b4c9f78616c9cc96c946d930e06e971444490600090a15495945050505050565b60006003828154811061038157610381611c1a565b60009182526020909120600d90910201600181015490915033600160a060020a03909116036103fa5760405160e560020a62461bcd02815260206004820152600f60248201527f73656c6c6572207769746864726177000000000000000000000000000000000060448201526064015b60405180910390fd5b600881015433600160a060020a039091160361045b5760405160e560020a62461bcd02815260206004820152600f60248201527f77696e6e6572207769746864726177000000000000000000000000000000000060448201526064016103f1565b6003600a82015460ff16600381111561047657610476611aff565b146104965760405160e560020a62461bcd0281526004016103f190611db7565b33600090815260208181526040808320858452909152902054806104ff5760405160e560020a62461bcd02815260206004820152601060248201527f4e6f2072657475726e20616d6f756e740000000000000000000000000000000060448201526064016103f1565b336000818152602081815260408083208784529091528082208290555183156108fc0291849190818181858888f19350505050158015610543573d6000803e3d6000fd5b507f9da6493a92039daf47d1f2d7a782299c5994c6323eb1e972f69c432089ec52bf83338360405161057793929190611dee565b60405180910390a1505050565b60006003828154811061059957610599611c1a565b60009182526020909120600d909102016001810154909150600160a060020a0316331461060b5760405160e560020a62461bcd02815260206004820152600b60248201527f6f6e6c792073656c6c657200000000000000000000000000000000000000000060448201526064016103f1565b6002548211156106305760405160e560020a62461bcd0281526004016103f190611e0d565b6003600a82015460ff16600381111561064b5761064b611aff565b1461065557600080fd5b60098101543031106106a55760098101546001820154604051600160a060020a039091169082156108fc029083906000818181858888f193505050501580156106a2573d6000803e3d6000fd5b50505b600c8101805460ff19166001179055600881015460098201546040517fd2aa34a4fdbbc6dff6a3e56f46e0f3ae2a31d7785ff3487aa5c95c642acea501926106fa928692600160a060020a0390921691611dee565b60405180910390a15050565b60006003838154811061071b5761071b611c1a565b60009182526020909120600d909102016001810154909150600160a060020a0316330361075d5760405160e560020a62461bcd0281526004016103f190611e44565b6002548311156107825760405160e560020a62461bcd0281526004016103f190611e0d565b6000600a82015460ff16600381111561079d5761079d611aff565b146107bd5760405160e560020a62461bcd0281526004016103f190611db7565b806004015482116108135760405160e560020a62461bcd02815260206004820152601760248201527f6c657373207468616e206d696e696d756d20707269636500000000000000000060448201526064016103f1565b3360009081526020818152604080832086845290915281208390556007820180549161083e83611d9e565b9091555050600b810154610853906003611e7b565b431061086f5743600b820155600a8101805460ff191660011790555b7f63404806fdb0ebf1efaf366c0ef00621065d328975255a3e51866cf6812ec42d83338460405161057793929190611dee565b6000600382815481106108b7576108b7611c1a565b60009182526020909120600d909102016001810154909150600160a060020a031633036108f95760405160e560020a62461bcd0281526004016103f190611e44565b60025482111561091e5760405160e560020a62461bcd0281526004016103f190611e0d565b6001600a82015460ff16600381111561093957610939611aff565b146109595760405160e560020a62461bcd0281526004016103f190611db7565b3360009081526020818152604080832085845290915290205434146109c35760405160e560020a62461bcd02815260206004820152601c60248201527f4e6f742073616d652076616c756520617320746865207072656269640000000060448201526064016103f1565b6040516c010000000000000000000000003302602082015234603482015260009060540160408051808303601f1901815282825280516020918201208383019092523383528083018281526005860180546001808201835560008381529490942095516002909102909501805473ffffffffffffffffffffffffffffffffffffffff1916600160a060020a0390961695909517855590519390910192909255905460078401549192509003610a885743600b830155600a8201805460ff191660021790555b600b820154610a98906003611e7b565b4310610ab45743600b830155600a8201805460ff191660021790555b7fb8d756f2d1da4663767eb4d559780ace84f2f65a421a60ddcb47e8b2e5d2fd2683333460405161057793929190611dee565b60038181548110610af757600080fd5b60009182526020909120600d9091020180546001820154600283018054929450600160a060020a039091169291610b2d90611c33565b80601f0160208091040260200160405190810160405280929190818152602001828054610b5990611c33565b8015610ba65780601f10610b7b57610100808354040283529160200191610ba6565b820191906000526020600020905b815481529060010190602001808311610b8957829003601f168201915b505050505090806003018054610bbb90611c33565b80601f0160208091040260200160405190810160405280929190818152602001828054610be790611c33565b8015610c345780601f10610c0957610100808354040283529160200191610c34565b820191906000526020600020905b815481529060010190602001808311610c1757829003601f168201915b505050506004830154600784015460088501546009860154600a870154600b880154600c9098015496979496939550600160a060020a0390921693909260ff92831692168b565b60048054906000610c8b83611d9e565b9190505550565b6060600060038381548110610ca957610ca9611c1a565b90600052602060002090600d0201604051806101a0016040529081600082015481526020016001820160009054906101000a9004600160a060020a0316600160a060020a0316600160a060020a03168152602001600282018054610d0c90611c33565b80601f0160208091040260200160405190810160405280929190818152602001828054610d3890611c33565b8015610d855780601f10610d5a57610100808354040283529160200191610d85565b820191906000526020600020905b815481529060010190602001808311610d6857829003601f168201915b50505050508152602001600382018054610d9e90611c33565b80601f0160208091040260200160405190810160405280929190818152602001828054610dca90611c33565b8015610e175780601f10610dec57610100808354040283529160200191610e17565b820191906000526020600020905b815481529060010190602001808311610dfa57829003601f168201915b505050505081526020016004820154815260200160058201805480602002602001604051908101604052809291908181526020016000905b82821015610e9757600084815260209081902060408051808201909152600285029091018054600160a060020a03168252600190810154828401529083529092019101610e4f565b50505050815260200160068201805480602002602001604051908101604052809291908181526020016000905b82821015610f0c57600084815260209081902060408051808201909152600285029091018054600160a060020a03168252600190810154828401529083529092019101610ec4565b50505090825250600782015460208201526008820154600160a060020a0316604082015260098201546060820152600a82015460809091019060ff166003811115610f5957610f59611aff565b6003811115610f6a57610f6a611aff565b8152600b8201546020820152600c9091015460ff16151560409091015260c001519392505050565b60008060038381548110610fa857610fa8611c1a565b90600052602060002090600d0201604051806101a0016040529081600082015481526020016001820160009054906101000a9004600160a060020a0316600160a060020a0316600160a060020a0316815260200160028201805461100b90611c33565b80601f016020809104026020016040519081016040528092919081815260200182805461103790611c33565b80156110845780601f1061105957610100808354040283529160200191611084565b820191906000526020600020905b81548152906001019060200180831161106757829003601f168201915b5050505050815260200160038201805461109d90611c33565b80601f01602080910402602001604051908101604052809291908181526020018280546110c990611c33565b80156111165780601f106110eb57610100808354040283529160200191611116565b820191906000526020600020905b8154815290600101906020018083116110f957829003601f168201915b505050505081526020016004820154815260200160058201805480602002602001604051908101604052809291908181526020016000905b8282101561119657600084815260209081902060408051808201909152600285029091018054600160a060020a0316825260019081015482840152908352909201910161114e565b50505050815260200160068201805480602002602001604051908101604052809291908181526020016000905b8282101561120b57600084815260209081902060408051808201909152600285029091018054600160a060020a031682526001908101548284015290835290920191016111c3565b50505090825250600782015460208201526008820154600160a060020a0316604082015260098201546060820152600a82015460809091019060ff16600381111561125857611258611aff565b600381111561126957611269611aff565b8152600b820154602080830191909152600c9092015460ff161515604090910152810151909150600160a060020a031633036112ba5760405160e560020a62461bcd0281526004016103f190611e44565b6002548311156112df5760405160e560020a62461bcd0281526004016103f190611e0d565b505033600090815260208181526040808320938352929052205490565b60006003838154811061131157611311611c1a565b60009182526020909120600d909102016001810154909150600160a060020a031633036113835760405160e560020a62461bcd02815260206004820152600d60248201527f73656c6c65722072657665616c0000000000000000000000000000000000000060448201526064016103f1565b6002548311156113a85760405160e560020a62461bcd0281526004016103f190611e0d565b6002600a82015460ff1660038111156113c3576113c3611aff565b146113e35760405160e560020a62461bcd0281526004016103f190611db7565b33600090815260208181526040808320868452909152902054821461144d5760405160e560020a62461bcd02815260206004820152601c60248201527f4e6f742073616d652076616c756520617320746865207072656269640000000060448201526064016103f1565b6114588333846118c2565b1561149d577f0c350e4684fc5e7452b482d1e567d9c28bfbcb68e3ddeafcf1b02be0795c204683338460405161149093929190611dee565b60405180910390a16114d9565b7fdec763f705daa0568e8064eadf6552a633af67f362ccec95529583c487fdeb428333846040516114d093929190611dee565b60405180910390a15b6040805180820190915233815260208082018481526006840180546001808201835560008381529490942094516002909102909401805473ffffffffffffffffffffffffffffffffffffffff1916600160a060020a0390951694909417845590519290910191909155546005820154036115635743600b820155600a8101805460ff191660031790555b600b810154611573906003611e7b565b431061158f5743600b820155600a8101805460ff191660031790555b7f0863348440b3315f6437735aeabf78d3884af77f04c7bc3e999262c2957da5b983338460405161057793929190611dee565b60606000600383815481106115d9576115d9611c1a565b90600052602060002090600d0201604051806101a0016040529081600082015481526020016001820160009054906101000a9004600160a060020a0316600160a060020a0316600160a060020a0316815260200160028201805461163c90611c33565b80601f016020809104026020016040519081016040528092919081815260200182805461166890611c33565b80156116b55780601f1061168a576101008083540402835291602001916116b5565b820191906000526020600020905b81548152906001019060200180831161169857829003601f168201915b505050505081526020016003820180546116ce90611c33565b80601f01602080910402602001604051908101604052809291908181526020018280546116fa90611c33565b80156117475780601f1061171c57610100808354040283529160200191611747565b820191906000526020600020905b81548152906001019060200180831161172a57829003601f168201915b505050505081526020016004820154815260200160058201805480602002602001604051908101604052809291908181526020016000905b828210156117c757600084815260209081902060408051808201909152600285029091018054600160a060020a0316825260019081015482840152908352909201910161177f565b50505050815260200160068201805480602002602001604051908101604052809291908181526020016000905b8282101561183c57600084815260209081902060408051808201909152600285029091018054600160a060020a031682526001908101548284015290835290920191016117f4565b50505090825250600782015460208201526008820154600160a060020a0316604082015260098201546060820152600a82015460809091019060ff16600381111561188957611889611aff565b600381111561189a5761189a611aff565b8152600b8201546020820152600c9091015460ff16151560409091015260a001519392505050565b600080600385815481106118d8576118d8611c1a565b60009182526020909120600d909102016008810154909150600160a060020a0316156119135780600901548311611913576000915050611947565b60098101839055600801805473ffffffffffffffffffffffffffffffffffffffff1916600160a060020a0385161790555060015b9392505050565b60e060020a634e487b7102600052604160045260246000fd5b600082601f83011261197857600080fd5b813567ffffffffffffffff808211156119935761199361194e565b604051601f8301601f19908116603f011681019082821181831017156119bb576119bb61194e565b816040528381528660208588010111156119d457600080fd5b836020870160208301376000602085830101528094505050505092915050565b60008060008060808587031215611a0a57600080fd5b8435600160a060020a0381168114611a2157600080fd5b9350602085013567ffffffffffffffff80821115611a3e57600080fd5b611a4a88838901611967565b94506040870135915080821115611a6057600080fd5b50611a6d87828801611967565b949793965093946060013593505050565b600060208284031215611a9057600080fd5b5035919050565b60008060408385031215611aaa57600080fd5b50508035926020909101359150565b6000815180845260005b81811015611adf57602081850181015186830182015201611ac3565b506000602082860101526020601f19601f83011685010191505092915050565b60e060020a634e487b7102600052602160045260246000fd5b60006101608d8352600160a060020a03808e166020850152816040850152611b428285018e611ab9565b91508382036060850152611b56828d611ab9565b92508a60808501528960a085015280891660c085015250508560e083015260048510611b955760e060020a634e487b7102600052602160045260246000fd5b8461010083015283610120830152611bb261014083018415159052565b9c9b505050505050505050505050565b602080825282518282018190526000919060409081850190868401855b82811015611c0d5781518051600160a060020a03168552860151868501529284019290850190600101611bdf565b5091979650505050505050565b60e060020a634e487b7102600052603260045260246000fd5b600281046001821680611c4757607f821691505b602082108103611c6a5760e060020a634e487b7102600052602260045260246000fd5b50919050565b601f821115611cba576000818152602081206020601f86010481016020861015611c975750805b6020601f860104820191505b81811015611cb657828155600101611ca3565b5050505b505050565b815167ffffffffffffffff811115611cd957611cd961194e565b611ced81611ce78454611c33565b84611c70565b602080601f831160018114611d265760008415611d0a5750858301515b60028086026008870290910a6000190419821617865550611cb6565b600085815260208120601f198616915b82811015611d5557888601518255948401946001909101908401611d36565b5085821015611d7557878501516008601f88160260020a60001904191681555b5050505050600202600101905550565b60e060020a634e487b7102600052601160045260246000fd5b600060018201611db057611db0611d85565b5060010190565b6020808252600b908201527f7068617365206572726f72000000000000000000000000000000000000000000604082015260600190565b928352600160a060020a03919091166020830152604082015260600190565b60208082526010908201527f77726f6e672061756374696f6e20696400000000000000000000000000000000604082015260600190565b6020808252600a908201527f73656c6c65722062696400000000000000000000000000000000000000000000604082015260600190565b80820180821115611e8e57611e8e611d85565b9291505056fea26469706673582212204065282fd47f63be36d90aaa33356e368ad37a91b9c808bf3a7500be4fdb301f64736f6c63430008110033",
  "immutableReferences": {},
  "source": "// SPDX-License-Identifier: MIT\npragma solidity ^0.8.0;\n\ncontract BlindAuction {\n\n  struct Bidder {\n    address payable addr;                                   // \n    bytes32 blindedBid;                                     //  \n  }\n\n  struct CheckedBidder {\n    address payable addr;                                   //  \n    uint bid;                                               //  \n  }\n\n  mapping(address => mapping(uint => uint)) bids;           // ->->\n  mapping(address => mapping(uint => uint)) biddersNumber;  // ->->\n\n  //   \n  // Prebid - 0; Bidding - 1; Reveal - 2; Done - 3;\n  enum Phase { Prebid, Bidding, Reveal, Done }\n\n  struct Auction {\n    uint auctionId;                 //  \n    address payable seller;         // \n    string title;                   // \n    string description;             // \n    uint minimumPrice;              //  \n\n    Bidder[] bidders;               // \n    CheckedBidder[] checkedBidders; //  \n    uint prebidderCount;            //  \n    address highestBidder;          //  \n    uint highestBid;                //  \n\n    Phase currentPhase;           //  (enum)\n    uint phaseBlockNumber;        //  \n    bool isAuctionEnd;            //  \n  }\n\n  uint public numAuctions;\n  Auction[] public auctions;\n\n  // get auction bidders\n  function getAuctionBidders(uint _auctionId) external view returns (Bidder [] memory) {\n    Auction memory auction = auctions[_auctionId];\n    return auction.bidders;\n  }\n\n  // get auction checked bidders\n  function getAuctionCheckedBidders(uint _auctionId) external view returns (CheckedBidder [] memory) {\n    Auction memory auction = auctions[_auctionId];\n    return auction.checkedBidders;\n  }\n\n  event AuctionCreated();\n\n  //  \n  function createAuction(\n    address payable _seller,\n    string memory _title,\n    string memory _description,\n    uint _minimumPrice\n  ) public returns (uint) {\n    // create auction\n    auctions.push();\n    Auction storage auction = auctions[numAuctions];\n    // put auction data\n    auction.auctionId = numAuctions;\n    auction.seller = _seller;\n    auction.title = _title;\n    auction.description = _description;\n    auction.minimumPrice = _minimumPrice;\n    auction.phaseBlockNumber = block.number;\n    // increase auction count\n    numAuctions++;\n    // event\n    emit AuctionCreated();\n    // return auction id\n    return auction.auctionId;\n  }\n\n  event AuctionPrebid(\n    uint _auctionId,\n    address _bidder,\n    uint _value\n  );\n\n  // \n  function prebid(uint _auctionId, uint _value) public {\n    // check valid\n    Auction storage auction = auctions[_auctionId]; \n    require(msg.sender != auction.seller, \"seller bid\");                // check no seller\n    require(_auctionId <= numAuctions, \"wrong auction id\");             // check auction id\n    require(auction.currentPhase == Phase.Prebid, \"phase error\");       // check phase\n    require(_value > auction.minimumPrice, \"less than minimum price\");  // check minimun price\n    \n    // push prebid\n    bids[msg.sender][_auctionId] = _value;\n    // increase count\n    auction.prebidderCount++;\n    // change phase\n    if (block.number >= auction.phaseBlockNumber + 3) {\n      auction.phaseBlockNumber = block.number;\n      auction.currentPhase = Phase.Bidding;\n    }\n    // event\n    emit AuctionPrebid(_auctionId, msg.sender, _value);\n  }\n\n  //    \n  function getMyBid(uint _auctionId) external view returns (uint) {\n    Auction memory auction = auctions[_auctionId];\n    require(msg.sender != auction.seller, \"seller bid\");                // check no seller\n    require(_auctionId <= numAuctions, \"wrong auction id\");             // check auction id\n    return bids[msg.sender][_auctionId];\n  }\n\n  event AuctionBid(uint _auctionId, address _bidder, uint _value);\n\n  // ()\n  function bid(uint _auctionId) public payable {\n    // check valid\n    Auction storage auction = auctions[_auctionId];\n    require(msg.sender != auction.seller, \"seller bid\");                                // check no seller\n    require(_auctionId <= numAuctions, \"wrong auction id\");                             // check auction id\n    require(auction.currentPhase == Phase.Bidding, \"phase error\");                      // check phase\n    require(msg.value == bids[msg.sender][_auctionId], \"Not same value as the prebid\"); // check prebid bid value\n\n    // hashing(address, value)\n    bytes32 _blindedBid = keccak256(abi.encodePacked(msg.sender, msg.value));\n    // push bid\n    auction.bidders.push(\n      Bidder(payable(msg.sender), _blindedBid)\n    );\n    // change phase\n    if (auction.prebidderCount == auction.bidders.length) {\n      auction.phaseBlockNumber = block.number;\n      auction.currentPhase = Phase.Reveal;\n    } \n    if (block.number >= auction.phaseBlockNumber + 3) {\n      auction.phaseBlockNumber = block.number;\n      auction.currentPhase = Phase.Reveal;\n    }\n    // event\n    emit AuctionBid(_auctionId, msg.sender, msg.value);\n  }\n\n  event NowHighestBidder(uint _auctionId, address _bidder, uint _value);\n  event BidFail(uint _auctionId, address _bidder, uint _value);\n\n  event AuctionReveal(uint _auctionId, address _bidder, uint _value);\n  // \n  function reveal(uint _auctionId , uint _value) public {\n    // check valid\n    Auction storage auction = auctions[_auctionId];\n    require(msg.sender != auction.seller, \"seller reveal\");                             // check no seller\n    require(_auctionId <= numAuctions, \"wrong auction id\");                             // check auction id\n    require(auction.currentPhase == Phase.Reveal, \"phase error\");                       // check phase\n    require(_value == bids[msg.sender][_auctionId], \"Not same value as the prebid\");    // check bid value\n\n    // check bid result\n    if (placeBid(_auctionId, msg.sender, _value)) {\n      emit NowHighestBidder(_auctionId, msg.sender, _value);\n    } else {\n      emit BidFail(_auctionId, msg.sender, _value);\n    }\n    // set checked bidder\n    auction.checkedBidders.push(\n      CheckedBidder(payable(msg.sender), _value)\n    );\n    // change phase\n    if (auction.bidders.length == auction.checkedBidders.length) {\n      auction.phaseBlockNumber = block.number;\n      auction.currentPhase = Phase.Done;\n    } \n    if (block.number >= auction.phaseBlockNumber + 3) {\n      auction.phaseBlockNumber = block.number;\n      auction.currentPhase = Phase.Done;\n    }\n    \n    // event\n    emit AuctionReveal(_auctionId, msg.sender, _value);\n  }\n\n  //  \n  function placeBid(uint _auctionId, address _bidder, uint _value) internal returns (bool success) {\n    Auction storage auction = auctions[_auctionId];\n    if (auction.highestBidder != address(0)) {\n      if (_value <= auction.highestBid) {\n        return false;\n      } \n    }\n    // set highest bid & bidder\n    auction.highestBid = _value;\n    auction.highestBidder = _bidder;\n\n\n    return true;\n  }\n\n  event Withdraw(uint _auctionId, address _bidder, uint _value);\n  //  \n  function withdraw(uint _auctionId) public {\n    // check valid\n    Auction storage auction = auctions[_auctionId];\n    require(auction.seller != msg.sender, \"seller withdraw\");           // check seller\n    require(auction.highestBidder != msg.sender, \"winner withdraw\");    // check winner\n    require(auction.currentPhase == Phase.Done, \"phase error\");         // check phase\n    uint amount = bids[msg.sender][_auctionId];\n    require(amount > 0, \"No return amount\");                            // check withdraw amount\n    // withdraw bid\n    bids[msg.sender][_auctionId] = 0;\n    payable(msg.sender).transfer(amount);\n    // event\n    emit Withdraw(_auctionId, msg.sender, amount);\n  }\n\n  event AuctionEnded(uint _auctionId, address _highestBidder, uint _highestBid);\n  //     \n  function auctionEnd(uint _auctionId) public {\n    // check valid\n    Auction storage auction = auctions[_auctionId];\n    require(msg.sender == auction.seller, \"only seller\");           // check only seller\n    require(_auctionId <= numAuctions, \"wrong auction id\");         // check auction id\n    require(auction.currentPhase == Phase.Done);                    // check phase\n\n    // seller get highest bid\n    if (address(this).balance >= auction.highestBid) {\n      uint winningBid = auction.highestBid;\n      auction.seller.transfer(winningBid);\n    }\n    // auction end\n    auction.isAuctionEnd = true;\n    // event\n    emit AuctionEnded(_auctionId, auction.highestBidder, auction.highestBid);\n  }\n\n  // Testing \n  function getCurrentBlockNumber() public view returns(uint) {\n    return block.number;\n  }\n\n  uint testingNumber;\n  function generateBlock() public {\n    testingNumber++;\n  }\n}",
  "sourcePath": "/home/huketo/BlindAuction-Dapp/BlindAuction-contract/contracts/BlindAuction.sol",
  "compiler": {
    "name": "solc",
    "version": "0.8.17+commit.8df45f5f.Emscripten.clang"
  },
  "schemaVersion": "3.4.10",
  "updatedAt": "2022-10-25T07:37:48.313Z",
  "networkType": "ethereum",
  "devdoc": {
    "kind": "dev",
    "methods": {},
    "version": 1
  },
  "userdoc": {
    "kind": "user",
    "methods": {},
    "version": 1
  }
}