{
  "contractName": "BlindAuctionList",
  "abi": [
    {
      "inputs": [
        {
          "internalType": "uint256",
          "name": "",
          "type": "uint256"
        }
      ],
      "name": "auctions",
      "outputs": [
        {
          "internalType": "contract BlindAuction",
          "name": "",
          "type": "address"
        }
      ],
      "stateMutability": "view",
      "type": "function",
      "constant": true
    },
    {
      "inputs": [
        {
          "internalType": "string",
          "name": "_title",
          "type": "string"
        },
        {
          "internalType": "string",
          "name": "_description",
          "type": "string"
        },
        {
          "internalType": "uint256",
          "name": "_minimumBid",
          "type": "uint256"
        }
      ],
      "name": "createAuction",
      "outputs": [],
      "stateMutability": "nonpayable",
      "type": "function"
    },
    {
      "inputs": [],
      "name": "returnAllAuctions",
      "outputs": [
        {
          "internalType": "contract BlindAuction[]",
          "name": "",
          "type": "address[]"
        }
      ],
      "stateMutability": "view",
      "type": "function",
      "constant": true
    },
    {
      "inputs": [],
      "name": "generateBlockTest",
      "outputs": [],
      "stateMutability": "nonpayable",
      "type": "function"
    }
  ],
  "bytecode": "0x608060405234801561001057600080fd5b50612dee806100206000396000f3fe60806040523480156200001157600080fd5b5060043610620000525760003560e01c8063571a26a0146200005757806391786a8c146200008d578063d1f28df61462000099578063ddf2070614620000bb575b600080fd5b6200007560048036038101906200006f9190620002d0565b620000db565b6040516200008491906200038d565b60405180910390f35b620000976200011b565b005b620000a362000137565b604051620000b2919062000478565b60405180910390f35b620000d96004803603810190620000d39190620005fe565b620001c7565b005b60008181548110620000ec57600080fd5b906000526020600020016000915054906101000a900473ffffffffffffffffffffffffffffffffffffffff1681565b600160008154809291906200013090620006c7565b9190505550565b60606000805480602002602001604051908101604052809291908181526020018280548015620001bd57602002820191906000526020600020905b8160009054906101000a900473ffffffffffffffffffffffffffffffffffffffff1673ffffffffffffffffffffffffffffffffffffffff168152602001906001019080831162000172575b5050505050905090565b600033848484604051620001db9062000273565b620001ea9493929190620007d3565b604051809103906000f08015801562000207573d6000803e3d6000fd5b5090506000819080600181540180825580915050600190039060005260206000200160009091909190916101000a81548173ffffffffffffffffffffffffffffffffffffffff021916908373ffffffffffffffffffffffffffffffffffffffff16021790555050505050565b61258a806200082f83390190565b6000604051905090565b600080fd5b600080fd5b6000819050919050565b620002aa8162000295565b8114620002b657600080fd5b50565b600081359050620002ca816200029f565b92915050565b600060208284031215620002e957620002e86200028b565b5b6000620002f984828501620002b9565b91505092915050565b600073ffffffffffffffffffffffffffffffffffffffff82169050919050565b6000819050919050565b60006200034d62000347620003418462000302565b62000322565b62000302565b9050919050565b600062000361826200032c565b9050919050565b6000620003758262000354565b9050919050565b620003878162000368565b82525050565b6000602082019050620003a460008301846200037c565b92915050565b600081519050919050565b600082825260208201905092915050565b6000819050602082019050919050565b620003e18162000368565b82525050565b6000620003f58383620003d6565b60208301905092915050565b6000602082019050919050565b60006200041b82620003aa565b620004278185620003b5565b93506200043483620003c6565b8060005b838110156200046b5781516200044f8882620003e7565b97506200045c8362000401565b92505060018101905062000438565b5085935050505092915050565b600060208201905081810360008301526200049481846200040e565b905092915050565b600080fd5b600080fd5b6000601f19601f8301169050919050565b7f4e487b7100000000000000000000000000000000000000000000000000000000600052604160045260246000fd5b620004f182620004a6565b810181811067ffffffffffffffff82111715620005135762000512620004b7565b5b80604052505050565b60006200052862000281565b9050620005368282620004e6565b919050565b600067ffffffffffffffff821115620005595762000558620004b7565b5b6200056482620004a6565b9050602081019050919050565b82818337600083830152505050565b60006200059762000591846200053b565b6200051c565b905082815260208101848484011115620005b657620005b5620004a1565b5b620005c384828562000571565b509392505050565b600082601f830112620005e357620005e26200049c565b5b8135620005f584826020860162000580565b91505092915050565b6000806000606084860312156200061a57620006196200028b565b5b600084013567ffffffffffffffff8111156200063b576200063a62000290565b5b6200064986828701620005cb565b935050602084013567ffffffffffffffff8111156200066d576200066c62000290565b5b6200067b86828701620005cb565b92505060406200068e86828701620002b9565b9150509250925092565b7f4e487b7100000000000000000000000000000000000000000000000000000000600052601160045260246000fd5b6000620006d48262000295565b91507fffffffffffffffffffffffffffffffffffffffffffffffffffffffffffffffff820362000709576200070862000698565b5b600182019050919050565b6000620007218262000302565b9050919050565b620007338162000714565b82525050565b600081519050919050565b600082825260208201905092915050565b60005b838110156200077557808201518184015260208101905062000758565b60008484015250505050565b60006200078e8262000739565b6200079a818562000744565b9350620007ac81856020860162000755565b620007b781620004a6565b840191505092915050565b620007cd8162000295565b82525050565b6000608082019050620007ea600083018762000728565b8181036020830152620007fe818662000781565b9050818103604083015262000814818562000781565b9050620008256060830184620007c2565b9594505050505056fe60806040523480156200001157600080fd5b506040516200258a3803806200258a8339818101604052810190620000379190620002e6565b836000806101000a81548173ffffffffffffffffffffffffffffffffffffffff021916908373ffffffffffffffffffffffffffffffffffffffff1602179055508260019081620000889190620005d7565b5081600290816200009a9190620005d7565b50806003819055504360048190555050505050620006be565b6000604051905090565b600080fd5b600080fd5b600073ffffffffffffffffffffffffffffffffffffffff82169050919050565b6000620000f482620000c7565b9050919050565b6200010681620000e7565b81146200011257600080fd5b50565b6000815190506200012681620000fb565b92915050565b600080fd5b600080fd5b6000601f19601f8301169050919050565b7f4e487b7100000000000000000000000000000000000000000000000000000000600052604160045260246000fd5b620001818262000136565b810181811067ffffffffffffffff82111715620001a357620001a262000147565b5b80604052505050565b6000620001b8620000b3565b9050620001c6828262000176565b919050565b600067ffffffffffffffff821115620001e957620001e862000147565b5b620001f48262000136565b9050602081019050919050565b60005b838110156200022157808201518184015260208101905062000204565b60008484015250505050565b6000620002446200023e84620001cb565b620001ac565b90508281526020810184848401111562000263576200026262000131565b5b6200027084828562000201565b509392505050565b600082601f83011262000290576200028f6200012c565b5b8151620002a28482602086016200022d565b91505092915050565b6000819050919050565b620002c081620002ab565b8114620002cc57600080fd5b50565b600081519050620002e081620002b5565b92915050565b60008060008060808587031215620003035762000302620000bd565b5b6000620003138782880162000115565b945050602085015167ffffffffffffffff811115620003375762000336620000c2565b5b620003458782880162000278565b935050604085015167ffffffffffffffff811115620003695762000368620000c2565b5b620003778782880162000278565b92505060606200038a87828801620002cf565b91505092959194509250565b600081519050919050565b7f4e487b7100000000000000000000000000000000000000000000000000000000600052602260045260246000fd5b60006002820490506001821680620003e957607f821691505b602082108103620003ff57620003fe620003a1565b5b50919050565b60008190508160005260206000209050919050565b60006020601f8301049050919050565b600082821b905092915050565b600060088302620004697fffffffffffffffffffffffffffffffffffffffffffffffffffffffffffffffff826200042a565b6200047586836200042a565b95508019841693508086168417925050509392505050565b6000819050919050565b6000620004b8620004b2620004ac84620002ab565b6200048d565b620002ab565b9050919050565b6000819050919050565b620004d48362000497565b620004ec620004e382620004bf565b84845462000437565b825550505050565b600090565b62000503620004f4565b62000510818484620004c9565b505050565b5b8181101562000538576200052c600082620004f9565b60018101905062000516565b5050565b601f8211156200058757620005518162000405565b6200055c846200041a565b810160208510156200056c578190505b620005846200057b856200041a565b83018262000515565b50505b505050565b600082821c905092915050565b6000620005ac600019846008026200058c565b1980831691505092915050565b6000620005c7838362000599565b9150826002028217905092915050565b620005e28262000396565b67ffffffffffffffff811115620005fe57620005fd62000147565b5b6200060a8254620003d0565b620006178282856200053c565b600060209050601f8311600181146200064f57600084156200063a578287015190505b620006468582620005b9565b865550620006b6565b601f1984166200065f8662000405565b60005b82811015620006895784890151825560018201915060208501945060208101905062000662565b86831015620006a95784890151620006a5601f89168262000599565b8355505b6001600288020188555050505b505050505050565b611ebc80620006ce6000396000f3fe60806040526004361061011f5760003560e01c80636fd902e1116100a0578063c8287b5811610064578063c8287b581461036e578063d3a863861461039c578063d57bde79146103c7578063db6f5953146103f2578063f3ee4fc4146104095761011f565b80636fd902e1146102995780637284e416146102c457806384ddc67f146102ef57806391f901571461031a578063c2ca0ac5146103455761011f565b80633bb29f89116100e75780633bb29f89146101c65780633ccfd60b146101ef5780634a79d50c146102065780635c865420146102315780636b25ad531461026e5761011f565b8063055ad42e1461012457806308551a531461014f5780631998aeef1461017a5780631f2c71f3146101845780632a24f46c146101af575b600080fd5b34801561013057600080fd5b50610139610434565b604051610146919061162e565b60405180910390f35b34801561015b57600080fd5b50610164610447565b604051610171919061168a565b60405180910390f35b61018261046b565b005b34801561019057600080fd5b50610199610706565b6040516101a691906116be565b60405180910390f35b3480156101bb57600080fd5b506101c461070c565b005b3480156101d257600080fd5b506101ed60048036038101906101e8919061170a565b6108f2565b005b3480156101fb57600080fd5b50610204610aa8565b005b34801561021257600080fd5b5061021b610d68565b60405161022891906117c7565b60405180910390f35b34801561023d57600080fd5b5061025860048036038101906102539190611827565b610df6565b604051610265919061186d565b60405180910390f35b34801561027a57600080fd5b50610283610e0e565b60405161029091906116be565b60405180910390f35b3480156102a557600080fd5b506102ae610e14565b6040516102bb91906116be565b60405180910390f35b3480156102d057600080fd5b506102d9610e1c565b6040516102e691906117c7565b60405180910390f35b3480156102fb57600080fd5b50610304610eaa565b60405161031191906116be565b60405180910390f35b34801561032657600080fd5b5061032f610ef1565b60405161033c9190611897565b60405180910390f35b34801561035157600080fd5b5061036c6004803603810190610367919061170a565b610f17565b005b34801561037a57600080fd5b5061038361119b565b60405161039394939291906118b2565b60405180910390f35b3480156103a857600080fd5b506103b16112de565b6040516103be91906116be565b60405180910390f35b3480156103d357600080fd5b506103dc6112e4565b6040516103e991906116be565b60405180910390f35b3480156103fe57600080fd5b506104076112ea565b005b34801561041557600080fd5b5061041e6114b0565b60405161042b91906116be565b60405180910390f35b600c60009054906101000a900460ff1681565b60008054906101000a900473ffffffffffffffffffffffffffffffffffffffff1681565b60018060038111156104805761047f6115b7565b5b600c60009054906101000a900460ff1660038111156104a2576104a16115b7565b5b146104e2576040517f08c379a00000000000000000000000000000000000000000000000000000000081526004016104d990611951565b60405180910390fd5b34600354811015610528576040517f08c379a000000000000000000000000000000000000000000000000000000000815260040161051f906119bd565b60405180910390fd5b60008054906101000a900473ffffffffffffffffffffffffffffffffffffffff1673ffffffffffffffffffffffffffffffffffffffff163373ffffffffffffffffffffffffffffffffffffffff16036105b6576040517f08c379a00000000000000000000000000000000000000000000000000000000081526004016105ad90611a29565b60405180910390fd5b600a60003373ffffffffffffffffffffffffffffffffffffffff1673ffffffffffffffffffffffffffffffffffffffff168152602001908152602001600020543414610637576040517f08c379a000000000000000000000000000000000000000000000000000000000815260040161062e90611a95565b60405180910390fd5b6000333460405160200161064c929190611b1e565b60405160208183030381529060405280519060200120905080600960003373ffffffffffffffffffffffffffffffffffffffff1673ffffffffffffffffffffffffffffffffffffffff168152602001908152602001600020819055506001600860008282546106bb9190611b79565b925050819055506106ca6112ea565b60085460075403610701576002600c60006101000a81548160ff021916908360038111156106fb576106fa6115b7565b5b02179055505b505050565b60075481565b6003806003811115610721576107206115b7565b5b600c60009054906101000a900460ff166003811115610743576107426115b7565b5b14610783576040517f08c379a000000000000000000000000000000000000000000000000000000000815260040161077a90611951565b60405180910390fd5b60008054906101000a900473ffffffffffffffffffffffffffffffffffffffff1673ffffffffffffffffffffffffffffffffffffffff163373ffffffffffffffffffffffffffffffffffffffff1614610811576040517f08c379a000000000000000000000000000000000000000000000000000000000815260040161080890611bf9565b60405180910390fd5b60065447106108925760006006549050600060068190555060008054906101000a900473ffffffffffffffffffffffffffffffffffffffff1673ffffffffffffffffffffffffffffffffffffffff166108fc829081150290604051600060405180830381858888f1935050505015801561088f573d6000803e3d6000fd5b50505b7fdaec4582d5d9595688c8c98545fdd1c696d41c6aeaeb636737e84ed2f5c00eda600560009054906101000a900473ffffffffffffffffffffffffffffffffffffffff166006546040516108e7929190611c19565b60405180910390a150565b6000806003811115610907576109066115b7565b5b600c60009054906101000a900460ff166003811115610929576109286115b7565b5b14610969576040517f08c379a000000000000000000000000000000000000000000000000000000000815260040161096090611951565b60405180910390fd5b816003548110156109af576040517f08c379a00000000000000000000000000000000000000000000000000000000081526004016109a6906119bd565b60405180910390fd5b60008054906101000a900473ffffffffffffffffffffffffffffffffffffffff1673ffffffffffffffffffffffffffffffffffffffff163373ffffffffffffffffffffffffffffffffffffffff1603610a3d576040517f08c379a0000000000000000000000000000000000000000000000000000000008152600401610a3490611c8e565b60405180910390fd5b82600a60003373ffffffffffffffffffffffffffffffffffffffff1673ffffffffffffffffffffffffffffffffffffffff16815260200190815260200160002081905550600160076000828254610a949190611b79565b92505081905550610aa36112ea565b505050565b60026003811115610abc57610abb6115b7565b5b600c60009054906101000a900460ff166003811115610ade57610add6115b7565b5b03610c16576000600b60003373ffffffffffffffffffffffffffffffffffffffff1673ffffffffffffffffffffffffffffffffffffffff16815260200190815260200160002054905060008111610b6a576040517f08c379a0000000000000000000000000000000000000000000000000000000008152600401610b6190611cfa565b60405180910390fd5b600160086000828254610b7d9190611d1a565b925050819055506000600b60003373ffffffffffffffffffffffffffffffffffffffff1673ffffffffffffffffffffffffffffffffffffffff168152602001908152602001600020819055503373ffffffffffffffffffffffffffffffffffffffff166108fc829081150290604051600060405180830381858888f19350505050158015610c0f573d6000803e3d6000fd5b5050610d66565b600380811115610c2957610c286115b7565b5b600c60009054906101000a900460ff166003811115610c4b57610c4a6115b7565b5b03610d65576000600a60003373ffffffffffffffffffffffffffffffffffffffff1673ffffffffffffffffffffffffffffffffffffffff16815260200190815260200160002054905060008111610cd7576040517f08c379a0000000000000000000000000000000000000000000000000000000008152600401610cce90611cfa565b60405180910390fd5b6000600a60003373ffffffffffffffffffffffffffffffffffffffff1673ffffffffffffffffffffffffffffffffffffffff168152602001908152602001600020819055503373ffffffffffffffffffffffffffffffffffffffff166108fc829081150290604051600060405180830381858888f19350505050158015610d62573d6000803e3d6000fd5b50505b5b565b60018054610d7590611d7d565b80601f0160208091040260200160405190810160405280929190818152602001828054610da190611d7d565b8015610dee5780601f10610dc357610100808354040283529160200191610dee565b820191906000526020600020905b815481529060010190602001808311610dd157829003601f168201915b505050505081565b60096020528060005260406000206000915090505481565b60045481565b600043905090565b60028054610e2990611d7d565b80601f0160208091040260200160405190810160405280929190818152602001828054610e5590611d7d565b8015610ea25780601f10610e7757610100808354040283529160200191610ea2565b820191906000526020600020905b815481529060010190602001808311610e8557829003601f168201915b505050505081565b6000600a60003373ffffffffffffffffffffffffffffffffffffffff1673ffffffffffffffffffffffffffffffffffffffff16815260200190815260200160002054905090565b600560009054906101000a900473ffffffffffffffffffffffffffffffffffffffff1681565b6002806003811115610f2c57610f2b6115b7565b5b600c60009054906101000a900460ff166003811115610f4e57610f4d6115b7565b5b14610f8e576040517f08c379a0000000000000000000000000000000000000000000000000000000008152600401610f8590611951565b60405180910390fd5b81600354811015610fd4576040517f08c379a0000000000000000000000000000000000000000000000000000000008152600401610fcb906119bd565b60405180910390fd5b60008054906101000a900473ffffffffffffffffffffffffffffffffffffffff1673ffffffffffffffffffffffffffffffffffffffff163373ffffffffffffffffffffffffffffffffffffffff1603611062576040517f08c379a000000000000000000000000000000000000000000000000000000000815260040161105990611dfa565b60405180910390fd5b600a60003373ffffffffffffffffffffffffffffffffffffffff1673ffffffffffffffffffffffffffffffffffffffff1681526020019081526020016000205483146110e3576040517f08c379a00000000000000000000000000000000000000000000000000000000081526004016110da90611e66565b60405180910390fd5b6110ed33846114b6565b15611123577f20bb8045e19f7f82ac0a7b45fd8529f265f5865374824a82d1a1b1985cf6faea60405160405180910390a1611158565b7fe802bdf2cce17c908ddf72c5f103c181f9e06d5de06a4eb42ce5cff99bef27ab60405160405180910390a1611157610aa8565b5b60016008541161118e576003600c60006101000a81548160ff02191690836003811115611188576111876115b7565b5b02179055505b6111966112ea565b505050565b60608060008060016002600354600c60009054906101000a900460ff168380546111c490611d7d565b80601f01602080910402602001604051908101604052809291908181526020018280546111f090611d7d565b801561123d5780601f106112125761010080835404028352916020019161123d565b820191906000526020600020905b81548152906001019060200180831161122057829003601f168201915b5050505050935082805461125090611d7d565b80601f016020809104026020016040519081016040528092919081815260200182805461127c90611d7d565b80156112c95780601f1061129e576101008083540402835291602001916112c9565b820191906000526020600020905b8154815290600101906020018083116112ac57829003601f168201915b50505050509250935093509350935090919293565b60035481565b60065481565b60096004546112f99190611b79565b43106113765760006001600c60009054906101000a900460ff166003811115611325576113246115b7565b5b61132f9190611b79565b9050806003811115611344576113436115b7565b5b600c60006101000a81548160ff02191690836003811115611368576113676115b7565b5b021790555043600481905550505b6000600381111561138a576113896115b7565b5b600c60009054906101000a900460ff1660038111156113ac576113ab6115b7565b5b036113de577ff5e575817600879f2aae2e96af86bf349643491d9f79ae388a7b1245d700dc4a60405160405180910390a15b600160038111156113f2576113f16115b7565b5b600c60009054906101000a900460ff166003811115611414576114136115b7565b5b03611446577f3e8a058598d2a0df88916d6ae1c8bf967d2391fd4adcd0260919110fa25c681f60405160405180910390a15b6002600381111561145a576114596115b7565b5b600c60009054906101000a900460ff16600381111561147c5761147b6115b7565b5b036114ae577feb5d3cc4bb77c21ce7fcf9f4120ece1a02879ba3827210e000f90955aad63d7c60405160405180910390a15b565b60085481565b60008073ffffffffffffffffffffffffffffffffffffffff16600560009054906101000a900473ffffffffffffffffffffffffffffffffffffffff1673ffffffffffffffffffffffffffffffffffffffff16146115645760065482116115635781600b60008573ffffffffffffffffffffffffffffffffffffffff1673ffffffffffffffffffffffffffffffffffffffff16815260200190815260200160002081905550600090506115b1565b5b8160068190555082600560006101000a81548173ffffffffffffffffffffffffffffffffffffffff021916908373ffffffffffffffffffffffffffffffffffffffff160217905550600190505b92915050565b7f4e487b7100000000000000000000000000000000000000000000000000000000600052602160045260246000fd5b600481106115f7576115f66115b7565b5b50565b6000819050611608826115e6565b919050565b6000611618826115fa565b9050919050565b6116288161160d565b82525050565b6000602082019050611643600083018461161f565b92915050565b600073ffffffffffffffffffffffffffffffffffffffff82169050919050565b600061167482611649565b9050919050565b61168481611669565b82525050565b600060208201905061169f600083018461167b565b92915050565b6000819050919050565b6116b8816116a5565b82525050565b60006020820190506116d360008301846116af565b92915050565b600080fd5b6116e7816116a5565b81146116f257600080fd5b50565b600081359050611704816116de565b92915050565b6000602082840312156117205761171f6116d9565b5b600061172e848285016116f5565b91505092915050565b600081519050919050565b600082825260208201905092915050565b60005b83811015611771578082015181840152602081019050611756565b60008484015250505050565b6000601f19601f8301169050919050565b600061179982611737565b6117a38185611742565b93506117b3818560208601611753565b6117bc8161177d565b840191505092915050565b600060208201905081810360008301526117e1818461178e565b905092915050565b60006117f482611649565b9050919050565b611804816117e9565b811461180f57600080fd5b50565b600081359050611821816117fb565b92915050565b60006020828403121561183d5761183c6116d9565b5b600061184b84828501611812565b91505092915050565b6000819050919050565b61186781611854565b82525050565b6000602082019050611882600083018461185e565b92915050565b611891816117e9565b82525050565b60006020820190506118ac6000830184611888565b92915050565b600060808201905081810360008301526118cc818761178e565b905081810360208301526118e0818661178e565b90506118ef60408301856116af565b6118fc606083018461161f565b95945050505050565b7f70686173654572726f7200000000000000000000000000000000000000000000600082015250565b600061193b600a83611742565b915061194682611905565b602082019050919050565b6000602082019050818103600083015261196a8161192e565b9050919050565b7f4c657373207468616e206d696e696d756d426964000000000000000000000000600082015250565b60006119a7601483611742565b91506119b282611971565b602082019050919050565b600060208201905081810360008301526119d68161199a565b9050919050565b7f73656c6c65722062696400000000000000000000000000000000000000000000600082015250565b6000611a13600a83611742565b9150611a1e826119dd565b602082019050919050565b60006020820190508181036000830152611a4281611a06565b9050919050565b7f4e6f742073616d652076616c7565206173207468652070726562696400000000600082015250565b6000611a7f601c83611742565b9150611a8a82611a49565b602082019050919050565b60006020820190508181036000830152611aae81611a72565b9050919050565b60008160601b9050919050565b6000611acd82611ab5565b9050919050565b6000611adf82611ac2565b9050919050565b611af7611af2826117e9565b611ad4565b82525050565b6000819050919050565b611b18611b13826116a5565b611afd565b82525050565b6000611b2a8285611ae6565b601482019150611b3a8284611b07565b6020820191508190509392505050565b7f4e487b7100000000000000000000000000000000000000000000000000000000600052601160045260246000fd5b6000611b84826116a5565b9150611b8f836116a5565b9250828201905080821115611ba757611ba6611b4a565b5b92915050565b7f6f6e6c7953656c6c657200000000000000000000000000000000000000000000600082015250565b6000611be3600a83611742565b9150611bee82611bad565b602082019050919050565b60006020820190508181036000830152611c1281611bd6565b9050919050565b6000604082019050611c2e6000830185611888565b611c3b60208301846116af565b9392505050565b7f73656c6c65722070726562696400000000000000000000000000000000000000600082015250565b6000611c78600d83611742565b9150611c8382611c42565b602082019050919050565b60006020820190508181036000830152611ca781611c6b565b9050919050565b7f4e6f2072657475726e20616d6f756e7400000000000000000000000000000000600082015250565b6000611ce4601083611742565b9150611cef82611cae565b602082019050919050565b60006020820190508181036000830152611d1381611cd7565b9050919050565b6000611d25826116a5565b9150611d30836116a5565b9250828203905081811115611d4857611d47611b4a565b5b92915050565b7f4e487b7100000000000000000000000000000000000000000000000000000000600052602260045260246000fd5b60006002820490506001821680611d9557607f821691505b602082108103611da857611da7611d4e565b5b50919050565b7f73656c6c65722072657665616c00000000000000000000000000000000000000600082015250565b6000611de4600d83611742565b9150611def82611dae565b602082019050919050565b60006020820190508181036000830152611e1381611dd7565b9050919050565b7f4e6f742073616d652076616c7565206173207468652062696400000000000000600082015250565b6000611e50601983611742565b9150611e5b82611e1a565b602082019050919050565b60006020820190508181036000830152611e7f81611e43565b905091905056fea264697066735822122090d0594335a14bb80c07fc37ef8533b42b6f803cd706bb95c909c88553e5932464736f6c63430008110033a2646970667358221220697e7a907783b20598a0b98787fd97f19c8ad5aaa242961d8213dc2ed6a29c8d64736f6c63430008110033",
  "immutableReferences": {},
  "source": "// SPDX-License-Identifier: MIT\npragma solidity >=0.8.0 <0.9.0;\n\ncontract BlindAuctionList {\n  BlindAuction[] public auctions;\n\n  function createAuction(string memory _title, string memory _description, uint _minimumBid) public {\n    BlindAuction newAuction = new BlindAuction(payable(msg.sender), _title, _description, _minimumBid);\n    auctions.push(newAuction);\n  }\n\n  function returnAllAuctions() public view returns(BlindAuction[] memory) {\n    return auctions;\n  }\n\n  // Testing\n  uint a;\n  function generateBlockTest() public {\n    a++;\n  }\n}\n\ncontract BlindAuction {\n  \n  address payable public seller;                      // \n  string public title;                                // \n  string public description;                          // \n  uint public minimumBid;                             //  \n  \n  uint public phaseBlockNumber;                       //    \n  \n  address public highestBidder;                       //  \n  uint public highestBid;                             //  \n\n  uint public preBidderCount;                         //  \n  uint public payedBidderCount;                       //  \n  \n  mapping(address => bytes32) public blindedBids;     //     \n  mapping(address => uint) bids;                      //    \n  mapping(address => uint) pendingReturns;            //   \n\n\n  //   \n  // Prebid - 0; Bidding - 1; Reveal - 2; Done - 3;\n  enum Phase { Prebid, Bidding, Reveal, Done }\n  Phase public currentPhase;\n\n  // events\n  event Prebidding();\n  event Bidding();\n  event Revealing();\n  event AuctionEnded(address _winner, uint _highestBid);\n\n  event BidSuccess();\n  event BidFail();\n\n  //  \n  modifier validPhase(Phase reqPhase) {\n    require(currentPhase == reqPhase, \"phaseError\");\n    _;\n  }\n\n  //  \n  modifier onlySeller() {\n    require(msg.sender == seller, \"onlySeller\");\n    _;\n  }\n\n  //  \n  modifier isMinimum(uint value) {\n    require(value >= minimumBid, \"Less than minimumBid\");\n    _;\n  }\n\n  // BlindAuctionList createAuction     \n  constructor(address payable _seller, string memory _title, string memory _description, uint _minimumBid) {\n    seller = _seller;\n    title = _title;\n    description = _description;\n    minimumBid = _minimumBid;\n    phaseBlockNumber = block.number;\n  }\n\n  // Testing\n  function getCurrentBlockNumber() public view returns(uint) {\n    return block.number;\n  }\n\n  function changePhase() public {\n    if (block.number >= phaseBlockNumber + 9) {\n      uint nextPhase = uint(currentPhase) + 1;\n      currentPhase = Phase(nextPhase);\n      phaseBlockNumber = block.number;\n    }\n    \n    if (currentPhase == Phase.Prebid) emit Prebidding();\n    if (currentPhase == Phase.Bidding) emit Bidding();\n    if (currentPhase == Phase.Reveal) emit Revealing();\n  }\n\n  // \n  function prebid(uint value) public validPhase(Phase.Prebid) isMinimum(value) {\n    require(msg.sender != seller, \"seller prebid\");\n\n    bids[msg.sender] = value;\n    preBidderCount += 1;\n\n    changePhase();\n  }\n\n  //    \n  function getMyBid() external view returns (uint) {\n    return bids[msg.sender];\n  }\n\n  // ()\n  function bid() public payable validPhase(Phase.Bidding) isMinimum(msg.value) {\n    require(msg.sender != seller, \"seller bid\");\n    require(msg.value == bids[msg.sender], \"Not same value as the prebid\");\n\n    bytes32 blindedBid = keccak256(abi.encodePacked(msg.sender, msg.value));\n    blindedBids[msg.sender] = blindedBid;\n\n    payedBidderCount += 1;\n    changePhase();\n    if (preBidderCount == payedBidderCount) {\n      currentPhase = Phase.Reveal;\n    }\n  }\n\n  // \n  function reveal(uint value) public validPhase(Phase.Reveal) isMinimum(value) {\n    require(msg.sender != seller, \"seller reveal\");\n    require(value == bids[msg.sender], \"Not same value as the bid\");\n\n    if (placeBid(msg.sender, value)) {\n      emit BidSuccess();\n    } else {\n      emit BidFail();\n      withdraw();\n    }\n\n    if (payedBidderCount <= 1) {\n      currentPhase = Phase.Done;\n    }\n    changePhase();\n  }\n\n  //  \n  function placeBid(address bidder, uint value) internal returns (bool success) {\n    if (highestBidder != address(0)) {\n      if (value <= highestBid) {\n        pendingReturns[bidder] = value;\n        return false;\n      }\n    }\n    \n    highestBid = value;\n    highestBidder = bidder;\n    \n    return true;\n  }\n\n  //  \n  function withdraw() public {\n    if (currentPhase == Phase.Reveal) {\n      uint amount = pendingReturns[msg.sender];\n      require(amount > 0, \"No return amount\");\n\n      payedBidderCount -= 1;\n      pendingReturns[msg.sender] = 0;\n      payable(msg.sender).transfer(amount);\n    } else if (currentPhase == Phase.Done) {\n      uint _amount = bids[msg.sender];\n      require(_amount > 0, \"No return amount\");\n\n      bids[msg.sender] = 0;\n      payable(msg.sender).transfer(_amount);\n    }\n  }\n\n  //     \n  function auctionEnd() public validPhase(Phase.Done) onlySeller() {\n    if(address(this).balance >= highestBid) {\n      uint winningBid = highestBid;\n      highestBid = 0;\n      seller.transfer(winningBid);\n    }\n    emit AuctionEnded(highestBidder, highestBid);\n  }\n\n  function returnContents() public view returns (string memory, string memory, uint, Phase) {\n    return (title, description, minimumBid, currentPhase);\n  }\n}\n",
  "sourcePath": "/home/huketo/BlindAuction-Dapp/BlindAuction-contract/contracts/BlindAuction.sol",
  "compiler": {
    "name": "solc",
    "version": "0.8.17+commit.8df45f5f.Emscripten.clang"
  },
  "schemaVersion": "3.4.10",
  "updatedAt": "2022-10-21T05:16:34.652Z",
  "networkType": "ethereum",
  "devdoc": {
    "kind": "dev",
    "methods": {},
    "version": 1
  },
  "userdoc": {
    "kind": "user",
    "methods": {},
    "version": 1
  }
}