{
  "contractName": "BlindAuction",
  "abi": [
    {
      "inputs": [
        {
          "internalType": "uint256",
          "name": "_minimumBid",
          "type": "uint256"
        }
      ],
      "stateMutability": "nonpayable",
      "type": "constructor"
    },
    {
      "anonymous": false,
      "inputs": [
        {
          "indexed": false,
          "internalType": "address",
          "name": "_winner",
          "type": "address"
        },
        {
          "indexed": false,
          "internalType": "uint256",
          "name": "_highestBid",
          "type": "uint256"
        }
      ],
      "name": "AuctionEnded",
      "type": "event"
    },
    {
      "anonymous": false,
      "inputs": [],
      "name": "AuctionInit",
      "type": "event"
    },
    {
      "anonymous": false,
      "inputs": [],
      "name": "BidFail",
      "type": "event"
    },
    {
      "anonymous": false,
      "inputs": [],
      "name": "BidSuccess",
      "type": "event"
    },
    {
      "anonymous": false,
      "inputs": [],
      "name": "BiddingStarted",
      "type": "event"
    },
    {
      "anonymous": false,
      "inputs": [],
      "name": "RevealStarted",
      "type": "event"
    },
    {
      "inputs": [
        {
          "internalType": "address",
          "name": "",
          "type": "address"
        }
      ],
      "name": "blindedBids",
      "outputs": [
        {
          "internalType": "bytes32",
          "name": "",
          "type": "bytes32"
        }
      ],
      "stateMutability": "view",
      "type": "function"
    },
    {
      "inputs": [],
      "name": "currentPhase",
      "outputs": [
        {
          "internalType": "enum BlindAuction.Phase",
          "name": "",
          "type": "uint8"
        }
      ],
      "stateMutability": "view",
      "type": "function"
    },
    {
      "inputs": [],
      "name": "firstBlockNumber",
      "outputs": [
        {
          "internalType": "uint256",
          "name": "",
          "type": "uint256"
        }
      ],
      "stateMutability": "view",
      "type": "function"
    },
    {
      "inputs": [],
      "name": "highestBid",
      "outputs": [
        {
          "internalType": "uint256",
          "name": "",
          "type": "uint256"
        }
      ],
      "stateMutability": "view",
      "type": "function"
    },
    {
      "inputs": [],
      "name": "highestBidder",
      "outputs": [
        {
          "internalType": "address",
          "name": "",
          "type": "address"
        }
      ],
      "stateMutability": "view",
      "type": "function"
    },
    {
      "inputs": [],
      "name": "minimumBid",
      "outputs": [
        {
          "internalType": "uint256",
          "name": "",
          "type": "uint256"
        }
      ],
      "stateMutability": "view",
      "type": "function"
    },
    {
      "inputs": [],
      "name": "seller",
      "outputs": [
        {
          "internalType": "address payable",
          "name": "",
          "type": "address"
        }
      ],
      "stateMutability": "view",
      "type": "function"
    },
    {
      "inputs": [],
      "name": "changePhase",
      "outputs": [],
      "stateMutability": "nonpayable",
      "type": "function"
    },
    {
      "inputs": [
        {
          "internalType": "uint256",
          "name": "value",
          "type": "uint256"
        }
      ],
      "name": "preBid",
      "outputs": [],
      "stateMutability": "nonpayable",
      "type": "function"
    },
    {
      "inputs": [],
      "name": "getMyBid",
      "outputs": [
        {
          "internalType": "uint256",
          "name": "",
          "type": "uint256"
        }
      ],
      "stateMutability": "view",
      "type": "function"
    },
    {
      "inputs": [],
      "name": "bid",
      "outputs": [],
      "stateMutability": "payable",
      "type": "function"
    },
    {
      "inputs": [
        {
          "internalType": "uint256",
          "name": "value",
          "type": "uint256"
        }
      ],
      "name": "reveal",
      "outputs": [
        {
          "internalType": "bool",
          "name": "",
          "type": "bool"
        }
      ],
      "stateMutability": "nonpayable",
      "type": "function"
    },
    {
      "inputs": [],
      "name": "withdraw",
      "outputs": [],
      "stateMutability": "payable",
      "type": "function"
    },
    {
      "inputs": [],
      "name": "auctionEnd",
      "outputs": [],
      "stateMutability": "payable",
      "type": "function"
    }
  ],
  "bytecode": "0x60806040523480156200001157600080fd5b5060405162001cda38038062001cda8339818101604052810190620000379190620003ac565b336000806101000a81548173ffffffffffffffffffffffffffffffffffffffff021916908373ffffffffffffffffffffffffffffffffffffffff160217905550620000876200009c60201b60201c565b806001819055504360078190555050620004fa565b60008054906101000a900473ffffffffffffffffffffffffffffffffffffffff1673ffffffffffffffffffffffffffffffffffffffff163373ffffffffffffffffffffffffffffffffffffffff16146200012d576040517f08c379a000000000000000000000000000000000000000000000000000000000815260040162000124906200043f565b60405180910390fd5b60048081111562000143576200014262000461565b5b600860009054906101000a900460ff16600481111562000168576200016762000461565b5b03620001a2576000600860006101000a81548160ff0219169083600481111562000197576200019662000461565b5b02179055506200021d565b60006001600860009054906101000a900460ff166004811115620001cb57620001ca62000461565b5b620001d79190620004bf565b9050806004811115620001ef57620001ee62000461565b5b600860006101000a81548160ff0219169083600481111562000216576200021562000461565b5b0217905550505b6003600481111562000234576200023362000461565b5b600860009054906101000a900460ff16600481111562000259576200025862000461565b5b036200028c577f3bcc93d35219aa0512d7c0d1ca10b0231f473e3d5f9396877d1b7215ee0ab3d560405160405180910390a15b60026004811115620002a357620002a262000461565b5b600860009054906101000a900460ff166004811115620002c857620002c762000461565b5b03620002fb577f02c124e22ee7da1c9905bbb317cf67658c1cc3ea1c0953b1633f85d0b5c281d960405160405180910390a15b6000600481111562000312576200031162000461565b5b600860009054906101000a900460ff16600481111562000337576200033662000461565b5b036200036a577f8ad2842071cb64589c8e006941bc20b615aae08a93530e211ca7c9639bd26d9760405160405180910390a15b565b600080fd5b6000819050919050565b620003868162000371565b81146200039257600080fd5b50565b600081519050620003a6816200037b565b92915050565b600060208284031215620003c557620003c46200036c565b5b6000620003d58482850162000395565b91505092915050565b600082825260208201905092915050565b7f6f6e6c7953656c6c657200000000000000000000000000000000000000000000600082015250565b600062000427600a83620003de565b91506200043482620003ef565b602082019050919050565b600060208201905081810360008301526200045a8162000418565b9050919050565b7f4e487b7100000000000000000000000000000000000000000000000000000000600052602160045260246000fd5b7f4e487b7100000000000000000000000000000000000000000000000000000000600052601160045260246000fd5b6000620004cc8262000371565b9150620004d98362000371565b9250828201905080821115620004f457620004f362000490565b5b92915050565b6117d0806200050a6000396000f3fe6080604052600436106100dd5760003560e01c806384ddc67f1161007f578063ce3a763c11610059578063ce3a763c1461024f578063d3a863861461027a578063d57bde79146102a5578063db6f5953146102d0576100dd565b806384ddc67f146101bc57806391f90157146101e7578063c2ca0ac514610212576100dd565b80632a24f46c116100bb5780632a24f46c146101425780633ccfd60b1461014c5780634d8d2e62146101565780635c8654201461017f576100dd565b8063055ad42e146100e257806308551a531461010d5780631998aeef14610138575b600080fd5b3480156100ee57600080fd5b506100f76102e7565b6040516101049190611094565b60405180910390f35b34801561011957600080fd5b506101226102fa565b60405161012f91906110f0565b60405180910390f35b61014061031e565b005b61014a610560565b005b6101546106b8565b005b34801561016257600080fd5b5061017d60048036038101906101789190611146565b6107ce565b005b34801561018b57600080fd5b506101a660048036038101906101a191906111b1565b610962565b6040516101b391906111f7565b60405180910390f35b3480156101c857600080fd5b506101d161097a565b6040516101de9190611221565b60405180910390f35b3480156101f357600080fd5b506101fc6109c1565b604051610209919061124b565b60405180910390f35b34801561021e57600080fd5b5061023960048036038101906102349190611146565b6109e7565b6040516102469190611281565b60405180910390f35b34801561025b57600080fd5b50610264610c31565b6040516102719190611221565b60405180910390f35b34801561028657600080fd5b5061028f610c37565b60405161029c9190611221565b60405180910390f35b3480156102b157600080fd5b506102ba610c3d565b6040516102c79190611221565b60405180910390f35b3480156102dc57600080fd5b506102e5610c43565b005b600860009054906101000a900460ff1681565b60008054906101000a900473ffffffffffffffffffffffffffffffffffffffff1681565b60028060048111156103335761033261101d565b5b600860009054906101000a900460ff1660048111156103555761035461101d565b5b14610395576040517f08c379a000000000000000000000000000000000000000000000000000000000815260040161038c906112f9565b60405180910390fd5b346001548110156103db576040517f08c379a00000000000000000000000000000000000000000000000000000000081526004016103d290611365565b60405180910390fd5b60008054906101000a900473ffffffffffffffffffffffffffffffffffffffff1673ffffffffffffffffffffffffffffffffffffffff163373ffffffffffffffffffffffffffffffffffffffff1603610469576040517f08c379a0000000000000000000000000000000000000000000000000000000008152600401610460906113d1565b60405180910390fd5b600360003373ffffffffffffffffffffffffffffffffffffffff1673ffffffffffffffffffffffffffffffffffffffff1681526020019081526020016000205434146104ea576040517f08c379a00000000000000000000000000000000000000000000000000000000081526004016104e19061143d565b60405180910390fd5b600033346040516020016104ff9291906114c6565b60405160208183030381529060405280519060200120905080600260003373ffffffffffffffffffffffffffffffffffffffff1673ffffffffffffffffffffffffffffffffffffffff16815260200190815260200160002081905550505050565b60048060048111156105755761057461101d565b5b600860009054906101000a900460ff1660048111156105975761059661101d565b5b146105d7576040517f08c379a00000000000000000000000000000000000000000000000000000000081526004016105ce906112f9565b60405180910390fd5b60055447106106585760006005549050600060058190555060008054906101000a900473ffffffffffffffffffffffffffffffffffffffff1673ffffffffffffffffffffffffffffffffffffffff166108fc829081150290604051600060405180830381858888f19350505050158015610655573d6000803e3d6000fd5b50505b7fdaec4582d5d9595688c8c98545fdd1c696d41c6aeaeb636737e84ed2f5c00eda600460009054906101000a900473ffffffffffffffffffffffffffffffffffffffff166005546040516106ad9291906114f2565b60405180910390a150565b6000600660003373ffffffffffffffffffffffffffffffffffffffff1673ffffffffffffffffffffffffffffffffffffffff1681526020019081526020016000205490506000811161073f576040517f08c379a000000000000000000000000000000000000000000000000000000000815260040161073690611567565b60405180910390fd5b6000600660003373ffffffffffffffffffffffffffffffffffffffff1673ffffffffffffffffffffffffffffffffffffffff168152602001908152602001600020819055503373ffffffffffffffffffffffffffffffffffffffff166108fc829081150290604051600060405180830381858888f193505050501580156107ca573d6000803e3d6000fd5b5050565b60018060048111156107e3576107e261101d565b5b600860009054906101000a900460ff1660048111156108055761080461101d565b5b14610845576040517f08c379a000000000000000000000000000000000000000000000000000000000815260040161083c906112f9565b60405180910390fd5b8160015481101561088b576040517f08c379a000000000000000000000000000000000000000000000000000000000815260040161088290611365565b60405180910390fd5b60008054906101000a900473ffffffffffffffffffffffffffffffffffffffff1673ffffffffffffffffffffffffffffffffffffffff163373ffffffffffffffffffffffffffffffffffffffff1603610919576040517f08c379a0000000000000000000000000000000000000000000000000000000008152600401610910906115d3565b60405180910390fd5b82600360003373ffffffffffffffffffffffffffffffffffffffff1673ffffffffffffffffffffffffffffffffffffffff16815260200190815260200160002081905550505050565b60026020528060005260406000206000915090505481565b6000600360003373ffffffffffffffffffffffffffffffffffffffff1673ffffffffffffffffffffffffffffffffffffffff16815260200190815260200160002054905090565b600460009054906101000a900473ffffffffffffffffffffffffffffffffffffffff1681565b600060038060048111156109fe576109fd61101d565b5b600860009054906101000a900460ff166004811115610a2057610a1f61101d565b5b14610a60576040517f08c379a0000000000000000000000000000000000000000000000000000000008152600401610a57906112f9565b60405180910390fd5b82600154811015610aa6576040517f08c379a0000000000000000000000000000000000000000000000000000000008152600401610a9d90611365565b60405180910390fd5b60008054906101000a900473ffffffffffffffffffffffffffffffffffffffff1673ffffffffffffffffffffffffffffffffffffffff163373ffffffffffffffffffffffffffffffffffffffff1603610b34576040517f08c379a0000000000000000000000000000000000000000000000000000000008152600401610b2b9061163f565b60405180910390fd5b600360003373ffffffffffffffffffffffffffffffffffffffff1673ffffffffffffffffffffffffffffffffffffffff168152602001908152602001600020548414610bb5576040517f08c379a0000000000000000000000000000000000000000000000000000000008152600401610bac906116ab565b60405180910390fd5b610bbf3385610ee5565b15610bf9577f20bb8045e19f7f82ac0a7b45fd8529f265f5865374824a82d1a1b1985cf6faea60405160405180910390a160019250610c2a565b7fe802bdf2cce17c908ddf72c5f103c181f9e06d5de06a4eb42ce5cff99bef27ab60405160405180910390a1600092505b5050919050565b60075481565b60015481565b60055481565b60008054906101000a900473ffffffffffffffffffffffffffffffffffffffff1673ffffffffffffffffffffffffffffffffffffffff163373ffffffffffffffffffffffffffffffffffffffff1614610cd1576040517f08c379a0000000000000000000000000000000000000000000000000000000008152600401610cc890611717565b60405180910390fd5b600480811115610ce457610ce361101d565b5b600860009054906101000a900460ff166004811115610d0657610d0561101d565b5b03610d3b576000600860006101000a81548160ff02191690836004811115610d3157610d3061101d565b5b0217905550610dab565b60006001600860009054906101000a900460ff166004811115610d6157610d6061101d565b5b610d6b9190611766565b9050806004811115610d8057610d7f61101d565b5b600860006101000a81548160ff02191690836004811115610da457610da361101d565b5b0217905550505b60036004811115610dbf57610dbe61101d565b5b600860009054906101000a900460ff166004811115610de157610de061101d565b5b03610e13577f3bcc93d35219aa0512d7c0d1ca10b0231f473e3d5f9396877d1b7215ee0ab3d560405160405180910390a15b60026004811115610e2757610e2661101d565b5b600860009054906101000a900460ff166004811115610e4957610e4861101d565b5b03610e7b577f02c124e22ee7da1c9905bbb317cf67658c1cc3ea1c0953b1633f85d0b5c281d960405160405180910390a15b60006004811115610e8f57610e8e61101d565b5b600860009054906101000a900460ff166004811115610eb157610eb061101d565b5b03610ee3577f8ad2842071cb64589c8e006941bc20b615aae08a93530e211ca7c9639bd26d9760405160405180910390a15b565b60006005548211610ef95760009050611017565b600073ffffffffffffffffffffffffffffffffffffffff16600460009054906101000a900473ffffffffffffffffffffffffffffffffffffffff1673ffffffffffffffffffffffffffffffffffffffff1614610fca5760055460066000600460009054906101000a900473ffffffffffffffffffffffffffffffffffffffff1673ffffffffffffffffffffffffffffffffffffffff1673ffffffffffffffffffffffffffffffffffffffff1681526020019081526020016000206000828254610fc29190611766565b925050819055505b8160058190555082600460006101000a81548173ffffffffffffffffffffffffffffffffffffffff021916908373ffffffffffffffffffffffffffffffffffffffff160217905550600190505b92915050565b7f4e487b7100000000000000000000000000000000000000000000000000000000600052602160045260246000fd5b6005811061105d5761105c61101d565b5b50565b600081905061106e8261104c565b919050565b600061107e82611060565b9050919050565b61108e81611073565b82525050565b60006020820190506110a96000830184611085565b92915050565b600073ffffffffffffffffffffffffffffffffffffffff82169050919050565b60006110da826110af565b9050919050565b6110ea816110cf565b82525050565b600060208201905061110560008301846110e1565b92915050565b600080fd5b6000819050919050565b61112381611110565b811461112e57600080fd5b50565b6000813590506111408161111a565b92915050565b60006020828403121561115c5761115b61110b565b5b600061116a84828501611131565b91505092915050565b600061117e826110af565b9050919050565b61118e81611173565b811461119957600080fd5b50565b6000813590506111ab81611185565b92915050565b6000602082840312156111c7576111c661110b565b5b60006111d58482850161119c565b91505092915050565b6000819050919050565b6111f1816111de565b82525050565b600060208201905061120c60008301846111e8565b92915050565b61121b81611110565b82525050565b60006020820190506112366000830184611212565b92915050565b61124581611173565b82525050565b6000602082019050611260600083018461123c565b92915050565b60008115159050919050565b61127b81611266565b82525050565b60006020820190506112966000830184611272565b92915050565b600082825260208201905092915050565b7f70686173654572726f7200000000000000000000000000000000000000000000600082015250565b60006112e3600a8361129c565b91506112ee826112ad565b602082019050919050565b60006020820190508181036000830152611312816112d6565b9050919050565b7f4c657373207468616e206d696e696d756d426964000000000000000000000000600082015250565b600061134f60148361129c565b915061135a82611319565b602082019050919050565b6000602082019050818103600083015261137e81611342565b9050919050565b7f73656c6c65722062696400000000000000000000000000000000000000000000600082015250565b60006113bb600a8361129c565b91506113c682611385565b602082019050919050565b600060208201905081810360008301526113ea816113ae565b9050919050565b7f4e6f742073616d652076616c7565206173207468652070726562696400000000600082015250565b6000611427601c8361129c565b9150611432826113f1565b602082019050919050565b600060208201905081810360008301526114568161141a565b9050919050565b60008160601b9050919050565b60006114758261145d565b9050919050565b60006114878261146a565b9050919050565b61149f61149a82611173565b61147c565b82525050565b6000819050919050565b6114c06114bb82611110565b6114a5565b82525050565b60006114d2828561148e565b6014820191506114e282846114af565b6020820191508190509392505050565b6000604082019050611507600083018561123c565b6115146020830184611212565b9392505050565b7f4e6f2072657475726e20616d6f756e7400000000000000000000000000000000600082015250565b600061155160108361129c565b915061155c8261151b565b602082019050919050565b6000602082019050818103600083015261158081611544565b9050919050565b7f73656c6c65722070726562696400000000000000000000000000000000000000600082015250565b60006115bd600d8361129c565b91506115c882611587565b602082019050919050565b600060208201905081810360008301526115ec816115b0565b9050919050565b7f73656c6c65722072657665616c00000000000000000000000000000000000000600082015250565b6000611629600d8361129c565b9150611634826115f3565b602082019050919050565b600060208201905081810360008301526116588161161c565b9050919050565b7f4e6f742073616d652076616c7565206173207468652062696400000000000000600082015250565b600061169560198361129c565b91506116a08261165f565b602082019050919050565b600060208201905081810360008301526116c481611688565b9050919050565b7f6f6e6c7953656c6c657200000000000000000000000000000000000000000000600082015250565b6000611701600a8361129c565b915061170c826116cb565b602082019050919050565b60006020820190508181036000830152611730816116f4565b9050919050565b7f4e487b7100000000000000000000000000000000000000000000000000000000600052601160045260246000fd5b600061177182611110565b915061177c83611110565b925082820190508082111561179457611793611737565b5b9291505056fea264697066735822122057f14d8c31aaccb2cd4d3e9c3718a256852dbc9993ac4ffa46de58d1e3adad8864736f6c63430008110033",
  "immutableReferences": {},
  "source": "// SPDX-License-Identifier: MIT\npragma solidity >=0.4.22 <0.9.0;\n\ncontract BlindAuction {\n  \n  address payable public seller; // \n  uint public minimumBid; //  \n  \n  \n  mapping(address => bytes32) public blindedBids; //     \n  mapping(address => uint) bids; //    \n\n  address public highestBidder; //  \n  uint public highestBid; //  \n\n  mapping(address => uint) pendingReturns; //   \n\n  uint public firstBlockNumber; //    \n\n  //   \n  // Init - 0; PreBid - 1; Bidding - 2; Reveal - 3; Done - 4;\n  enum Phase { Init, PreBid, Bidding, Reveal, Done }\n  Phase public currentPhase;\n\n  // events\n  event AuctionInit();\n  event BiddingStarted();\n  event RevealStarted();\n  event AuctionEnded(address _winner, uint _highestBid);\n\n  event BidSuccess();\n  event BidFail();\n\n  //  \n  modifier validPhase(Phase reqPhase) {\n    require(currentPhase == reqPhase, \"phaseError\");\n    _;\n  }\n\n  //  \n  modifier onlySeller() {\n    require(msg.sender == seller, \"onlySeller\");\n    _;\n  }\n\n  //  \n  modifier isMinimum(uint value) {\n    require(value >= minimumBid, \"Less than minimumBid\");\n    _;\n  }\n\n\n  constructor(uint _minimumBid) {\n    seller = payable(msg.sender);\n    changePhase();\n    minimumBid = _minimumBid;\n    firstBlockNumber = block.number;\n  }\n\n  function changePhase() public onlySeller {\n    if (currentPhase == Phase.Done) {\n      currentPhase = Phase.Init;\n    } else {\n      uint nextPhase = uint(currentPhase) + 1;\n      currentPhase = Phase(nextPhase);\n    }\n\n    if (currentPhase == Phase.Reveal) emit RevealStarted();\n    if (currentPhase == Phase.Bidding) emit BiddingStarted();\n    if (currentPhase == Phase.Init) emit AuctionInit();\n  }\n\n  function preBid(uint value) public validPhase(Phase.PreBid) isMinimum(value) {\n    require(msg.sender != seller, \"seller prebid\");\n\n    bids[msg.sender] = value;\n  }\n\n  function getMyBid() external view returns (uint) {\n    return bids[msg.sender];\n  }\n\n  function bid() public payable validPhase(Phase.Bidding) isMinimum(msg.value) {\n    require(msg.sender != seller, \"seller bid\");\n    require(msg.value == bids[msg.sender], \"Not same value as the prebid\");\n\n    bytes32 blindedBid = keccak256(abi.encodePacked(msg.sender, msg.value));\n    blindedBids[msg.sender] = blindedBid;\n  }\n\n  function reveal(uint value) public validPhase(Phase.Reveal) isMinimum(value) returns (bool) {\n    require(msg.sender != seller, \"seller reveal\");\n    require(value == bids[msg.sender], \"Not same value as the bid\");\n\n    if (placeBid(msg.sender, value)) {\n      emit BidSuccess();\n      return true;\n    } else {\n      emit BidFail();\n      return false;\n    }\n  }\n\n  function placeBid(address bidder, uint value) internal returns (bool success) {\n    if (value <= highestBid) {\n      return false;\n    }\n    if (highestBidder != address(0)) {\n      pendingReturns[highestBidder] += highestBid;\n    }\n    highestBid = value;\n    highestBidder = bidder;\n    return true;\n  }\n\n  function withdraw() public payable {\n    uint amount = pendingReturns[msg.sender];\n    require(amount > 0, \"No return amount\");\n    pendingReturns[msg.sender] = 0;\n    payable(msg.sender).transfer(amount);\n  }\n\n  function auctionEnd() public payable validPhase(Phase.Done) {\n    if(address(this).balance >= highestBid) {\n      uint winningBid = highestBid;\n      highestBid = 0;\n      seller.transfer(winningBid);\n    }\n    emit AuctionEnded(highestBidder, highestBid);\n  }\n}\n",
  "sourcePath": "/home/huketo/BlindAuction-Dapp/BlindAuction-contract/contracts/BlindAuction.sol",
  "compiler": {
    "name": "solc",
    "version": "0.8.17+commit.8df45f5f.Emscripten.clang"
  },
  "schemaVersion": "3.4.10",
  "updatedAt": "2022-10-19T05:49:32.995Z",
  "devdoc": {
    "kind": "dev",
    "methods": {},
    "version": 1
  },
  "userdoc": {
    "kind": "user",
    "methods": {},
    "version": 1
  }
}