{
  "contractName": "BlindAuctionList",
  "abi": [
    {
      "inputs": [
        {
          "internalType": "uint256",
          "name": "",
          "type": "uint256"
        }
      ],
      "name": "auctions",
      "outputs": [
        {
          "internalType": "contract BlindAuction",
          "name": "",
          "type": "address"
        }
      ],
      "stateMutability": "view",
      "type": "function",
      "constant": true
    },
    {
      "inputs": [
        {
          "internalType": "string",
          "name": "_title",
          "type": "string"
        },
        {
          "internalType": "string",
          "name": "_description",
          "type": "string"
        },
        {
          "internalType": "uint256",
          "name": "_minimumBid",
          "type": "uint256"
        }
      ],
      "name": "createAuction",
      "outputs": [],
      "stateMutability": "nonpayable",
      "type": "function"
    },
    {
      "inputs": [],
      "name": "returnAllAuctions",
      "outputs": [
        {
          "internalType": "contract BlindAuction[]",
          "name": "",
          "type": "address[]"
        }
      ],
      "stateMutability": "view",
      "type": "function",
      "constant": true
    }
  ],
  "bytecode": "0x608060405234801561001057600080fd5b50612b5d806100206000396000f3fe60806040523480156200001157600080fd5b5060043610620000465760003560e01c8063571a26a0146200004b578063d1f28df61462000081578063ddf2070614620000a3575b600080fd5b6200006960048036038101906200006391906200029c565b620000c3565b60405162000078919062000359565b60405180910390f35b6200008b62000103565b6040516200009a919062000444565b60405180910390f35b620000c16004803603810190620000bb9190620005ca565b62000193565b005b60008181548110620000d457600080fd5b906000526020600020016000915054906101000a900473ffffffffffffffffffffffffffffffffffffffff1681565b606060008054806020026020016040519081016040528092919081815260200182805480156200018957602002820191906000526020600020905b8160009054906101000a900473ffffffffffffffffffffffffffffffffffffffff1673ffffffffffffffffffffffffffffffffffffffff16815260200190600101908083116200013e575b5050505050905090565b600033848484604051620001a7906200023f565b620001b6949392919062000723565b604051809103906000f080158015620001d3573d6000803e3d6000fd5b5090506000819080600181540180825580915050600190039060005260206000200160009091909190916101000a81548173ffffffffffffffffffffffffffffffffffffffff021916908373ffffffffffffffffffffffffffffffffffffffff16021790555050505050565b6123a9806200077f83390190565b6000604051905090565b600080fd5b600080fd5b6000819050919050565b620002768162000261565b81146200028257600080fd5b50565b60008135905062000296816200026b565b92915050565b600060208284031215620002b557620002b462000257565b5b6000620002c58482850162000285565b91505092915050565b600073ffffffffffffffffffffffffffffffffffffffff82169050919050565b6000819050919050565b600062000319620003136200030d84620002ce565b620002ee565b620002ce565b9050919050565b60006200032d82620002f8565b9050919050565b6000620003418262000320565b9050919050565b620003538162000334565b82525050565b600060208201905062000370600083018462000348565b92915050565b600081519050919050565b600082825260208201905092915050565b6000819050602082019050919050565b620003ad8162000334565b82525050565b6000620003c18383620003a2565b60208301905092915050565b6000602082019050919050565b6000620003e78262000376565b620003f3818562000381565b9350620004008362000392565b8060005b83811015620004375781516200041b8882620003b3565b97506200042883620003cd565b92505060018101905062000404565b5085935050505092915050565b60006020820190508181036000830152620004608184620003da565b905092915050565b600080fd5b600080fd5b6000601f19601f8301169050919050565b7f4e487b7100000000000000000000000000000000000000000000000000000000600052604160045260246000fd5b620004bd8262000472565b810181811067ffffffffffffffff82111715620004df57620004de62000483565b5b80604052505050565b6000620004f46200024d565b9050620005028282620004b2565b919050565b600067ffffffffffffffff82111562000525576200052462000483565b5b620005308262000472565b9050602081019050919050565b82818337600083830152505050565b6000620005636200055d8462000507565b620004e8565b9050828152602081018484840111156200058257620005816200046d565b5b6200058f8482856200053d565b509392505050565b600082601f830112620005af57620005ae62000468565b5b8135620005c18482602086016200054c565b91505092915050565b600080600060608486031215620005e657620005e562000257565b5b600084013567ffffffffffffffff8111156200060757620006066200025c565b5b620006158682870162000597565b935050602084013567ffffffffffffffff8111156200063957620006386200025c565b5b620006478682870162000597565b92505060406200065a8682870162000285565b9150509250925092565b60006200067182620002ce565b9050919050565b620006838162000664565b82525050565b600081519050919050565b600082825260208201905092915050565b60005b83811015620006c5578082015181840152602081019050620006a8565b60008484015250505050565b6000620006de8262000689565b620006ea818562000694565b9350620006fc818560208601620006a5565b620007078162000472565b840191505092915050565b6200071d8162000261565b82525050565b60006080820190506200073a600083018762000678565b81810360208301526200074e8186620006d1565b90508181036040830152620007648185620006d1565b905062000775606083018462000712565b9594505050505056fe60806040523480156200001157600080fd5b50604051620023a9380380620023a9833981810160405281019062000037919062000314565b836000806101000a81548173ffffffffffffffffffffffffffffffffffffffff021916908373ffffffffffffffffffffffffffffffffffffffff160217905550826001908162000088919062000605565b5081600290816200009a919062000605565b5080600381905550436004819055506001600a60006101000a81548160ff02191690836004811115620000d257620000d1620006ec565b5b0217905550505050506200071b565b6000604051905090565b600080fd5b600080fd5b600073ffffffffffffffffffffffffffffffffffffffff82169050919050565b60006200012282620000f5565b9050919050565b620001348162000115565b81146200014057600080fd5b50565b600081519050620001548162000129565b92915050565b600080fd5b600080fd5b6000601f19601f8301169050919050565b7f4e487b7100000000000000000000000000000000000000000000000000000000600052604160045260246000fd5b620001af8262000164565b810181811067ffffffffffffffff82111715620001d157620001d062000175565b5b80604052505050565b6000620001e6620000e1565b9050620001f48282620001a4565b919050565b600067ffffffffffffffff82111562000217576200021662000175565b5b620002228262000164565b9050602081019050919050565b60005b838110156200024f57808201518184015260208101905062000232565b60008484015250505050565b6000620002726200026c84620001f9565b620001da565b9050828152602081018484840111156200029157620002906200015f565b5b6200029e8482856200022f565b509392505050565b600082601f830112620002be57620002bd6200015a565b5b8151620002d08482602086016200025b565b91505092915050565b6000819050919050565b620002ee81620002d9565b8114620002fa57600080fd5b50565b6000815190506200030e81620002e3565b92915050565b60008060008060808587031215620003315762000330620000eb565b5b6000620003418782880162000143565b945050602085015167ffffffffffffffff811115620003655762000364620000f0565b5b6200037387828801620002a6565b935050604085015167ffffffffffffffff811115620003975762000396620000f0565b5b620003a587828801620002a6565b9250506060620003b887828801620002fd565b91505092959194509250565b600081519050919050565b7f4e487b7100000000000000000000000000000000000000000000000000000000600052602260045260246000fd5b600060028204905060018216806200041757607f821691505b6020821081036200042d576200042c620003cf565b5b50919050565b60008190508160005260206000209050919050565b60006020601f8301049050919050565b600082821b905092915050565b600060088302620004977fffffffffffffffffffffffffffffffffffffffffffffffffffffffffffffffff8262000458565b620004a3868362000458565b95508019841693508086168417925050509392505050565b6000819050919050565b6000620004e6620004e0620004da84620002d9565b620004bb565b620002d9565b9050919050565b6000819050919050565b6200050283620004c5565b6200051a6200051182620004ed565b84845462000465565b825550505050565b600090565b6200053162000522565b6200053e818484620004f7565b505050565b5b8181101562000566576200055a60008262000527565b60018101905062000544565b5050565b601f821115620005b5576200057f8162000433565b6200058a8462000448565b810160208510156200059a578190505b620005b2620005a98562000448565b83018262000543565b50505b505050565b600082821c905092915050565b6000620005da60001984600802620005ba565b1980831691505092915050565b6000620005f58383620005c7565b9150826002028217905092915050565b6200061082620003c4565b67ffffffffffffffff8111156200062c576200062b62000175565b5b620006388254620003fe565b620006458282856200056a565b600060209050601f8311600181146200067d576000841562000668578287015190505b620006748582620005e7565b865550620006e4565b601f1984166200068d8662000433565b60005b82811015620006b75784890151825560018201915060208501945060208101905062000690565b86831015620006d75784890151620006d3601f891682620005c7565b8355505b6001600288020188555050505b505050505050565b7f4e487b7100000000000000000000000000000000000000000000000000000000600052602160045260246000fd5b611c7e806200072b6000396000f3fe6080604052600436106101145760003560e01c80636fd902e1116100a0578063c2ca0ac511610064578063c2ca0ac51461030c578063c8287b5814610349578063d3a8638614610377578063d57bde79146103a2578063db6f5953146103cd57610114565b80636fd902e1146102495780637284e4161461027457806384ddc67f1461029f57806391786a8c146102ca57806391f90157146102e157610114565b80633bb29f89116100e75780633bb29f89146101835780633ccfd60b146101ac5780634a79d50c146101b65780635c865420146101e15780636b25ad531461021e57610114565b8063055ad42e1461011957806308551a53146101445780631998aeef1461016f5780632a24f46c14610179575b600080fd5b34801561012557600080fd5b5061012e6103e4565b60405161013b9190611412565b60405180910390f35b34801561015057600080fd5b506101596103f7565b604051610166919061146e565b60405180910390f35b61017761041b565b005b61018161065d565b005b34801561018f57600080fd5b506101aa60048036038101906101a591906114c4565b6107bd565b005b6101b4610951565b005b3480156101c257600080fd5b506101cb610a67565b6040516101d89190611581565b60405180910390f35b3480156101ed57600080fd5b50610208600480360381019061020391906115e1565b610af5565b6040516102159190611627565b60405180910390f35b34801561022a57600080fd5b50610233610b0d565b6040516102409190611651565b60405180910390f35b34801561025557600080fd5b5061025e610b13565b60405161026b9190611651565b60405180910390f35b34801561028057600080fd5b50610289610b1b565b6040516102969190611581565b60405180910390f35b3480156102ab57600080fd5b506102b4610ba9565b6040516102c19190611651565b60405180910390f35b3480156102d657600080fd5b506102df610bf0565b005b3480156102ed57600080fd5b506102f6610c0a565b604051610303919061167b565b60405180910390f35b34801561031857600080fd5b50610333600480360381019061032e91906114c4565b610c30565b60405161034091906116b1565b60405180910390f35b34801561035557600080fd5b5061035e610e7a565b60405161036e94939291906116cc565b60405180910390f35b34801561038357600080fd5b5061038c610fbd565b6040516103999190611651565b60405180910390f35b3480156103ae57600080fd5b506103b7610fc3565b6040516103c49190611651565b60405180910390f35b3480156103d957600080fd5b506103e2610fc9565b005b600a60009054906101000a900460ff1681565b60008054906101000a900473ffffffffffffffffffffffffffffffffffffffff1681565b60028060048111156104305761042f61139b565b5b600a60009054906101000a900460ff1660048111156104525761045161139b565b5b14610492576040517f08c379a00000000000000000000000000000000000000000000000000000000081526004016104899061176b565b60405180910390fd5b346003548110156104d8576040517f08c379a00000000000000000000000000000000000000000000000000000000081526004016104cf906117d7565b60405180910390fd5b60008054906101000a900473ffffffffffffffffffffffffffffffffffffffff1673ffffffffffffffffffffffffffffffffffffffff163373ffffffffffffffffffffffffffffffffffffffff1603610566576040517f08c379a000000000000000000000000000000000000000000000000000000000815260040161055d90611843565b60405180910390fd5b600860003373ffffffffffffffffffffffffffffffffffffffff1673ffffffffffffffffffffffffffffffffffffffff1681526020019081526020016000205434146105e7576040517f08c379a00000000000000000000000000000000000000000000000000000000081526004016105de906118af565b60405180910390fd5b600033346040516020016105fc929190611938565b60405160208183030381529060405280519060200120905080600760003373ffffffffffffffffffffffffffffffffffffffff1673ffffffffffffffffffffffffffffffffffffffff16815260200190815260200160002081905550505050565b60048060048111156106725761067161139b565b5b600a60009054906101000a900460ff1660048111156106945761069361139b565b5b146106d4576040517f08c379a00000000000000000000000000000000000000000000000000000000081526004016106cb9061176b565b60405180910390fd5b60065447106107555760006006549050600060068190555060008054906101000a900473ffffffffffffffffffffffffffffffffffffffff1673ffffffffffffffffffffffffffffffffffffffff166108fc829081150290604051600060405180830381858888f19350505050158015610752573d6000803e3d6000fd5b50505b7fdaec4582d5d9595688c8c98545fdd1c696d41c6aeaeb636737e84ed2f5c00eda600560009054906101000a900473ffffffffffffffffffffffffffffffffffffffff166006546040516107aa929190611964565b60405180910390a16107ba610fc9565b50565b60018060048111156107d2576107d161139b565b5b600a60009054906101000a900460ff1660048111156107f4576107f361139b565b5b14610834576040517f08c379a000000000000000000000000000000000000000000000000000000000815260040161082b9061176b565b60405180910390fd5b8160035481101561087a576040517f08c379a0000000000000000000000000000000000000000000000000000000008152600401610871906117d7565b60405180910390fd5b60008054906101000a900473ffffffffffffffffffffffffffffffffffffffff1673ffffffffffffffffffffffffffffffffffffffff163373ffffffffffffffffffffffffffffffffffffffff1603610908576040517f08c379a00000000000000000000000000000000000000000000000000000000081526004016108ff906119d9565b60405180910390fd5b82600860003373ffffffffffffffffffffffffffffffffffffffff1673ffffffffffffffffffffffffffffffffffffffff16815260200190815260200160002081905550505050565b6000600960003373ffffffffffffffffffffffffffffffffffffffff1673ffffffffffffffffffffffffffffffffffffffff168152602001908152602001600020549050600081116109d8576040517f08c379a00000000000000000000000000000000000000000000000000000000081526004016109cf90611a45565b60405180910390fd5b6000600960003373ffffffffffffffffffffffffffffffffffffffff1673ffffffffffffffffffffffffffffffffffffffff168152602001908152602001600020819055503373ffffffffffffffffffffffffffffffffffffffff166108fc829081150290604051600060405180830381858888f19350505050158015610a63573d6000803e3d6000fd5b5050565b60018054610a7490611a94565b80601f0160208091040260200160405190810160405280929190818152602001828054610aa090611a94565b8015610aed5780601f10610ac257610100808354040283529160200191610aed565b820191906000526020600020905b815481529060010190602001808311610ad057829003601f168201915b505050505081565b60076020528060005260406000206000915090505481565b60045481565b600043905090565b60028054610b2890611a94565b80601f0160208091040260200160405190810160405280929190818152602001828054610b5490611a94565b8015610ba15780601f10610b7657610100808354040283529160200191610ba1565b820191906000526020600020905b815481529060010190602001808311610b8457829003601f168201915b505050505081565b6000600860003373ffffffffffffffffffffffffffffffffffffffff1673ffffffffffffffffffffffffffffffffffffffff16815260200190815260200160002054905090565b600b6000815480929190610c0390611af4565b9190505550565b600560009054906101000a900473ffffffffffffffffffffffffffffffffffffffff1681565b60006003806004811115610c4757610c4661139b565b5b600a60009054906101000a900460ff166004811115610c6957610c6861139b565b5b14610ca9576040517f08c379a0000000000000000000000000000000000000000000000000000000008152600401610ca09061176b565b60405180910390fd5b82600354811015610cef576040517f08c379a0000000000000000000000000000000000000000000000000000000008152600401610ce6906117d7565b60405180910390fd5b60008054906101000a900473ffffffffffffffffffffffffffffffffffffffff1673ffffffffffffffffffffffffffffffffffffffff163373ffffffffffffffffffffffffffffffffffffffff1603610d7d576040517f08c379a0000000000000000000000000000000000000000000000000000000008152600401610d7490611b88565b60405180910390fd5b600860003373ffffffffffffffffffffffffffffffffffffffff1673ffffffffffffffffffffffffffffffffffffffff168152602001908152602001600020548414610dfe576040517f08c379a0000000000000000000000000000000000000000000000000000000008152600401610df590611bf4565b60405180910390fd5b610e083385611263565b15610e42577f20bb8045e19f7f82ac0a7b45fd8529f265f5865374824a82d1a1b1985cf6faea60405160405180910390a160019250610e73565b7fe802bdf2cce17c908ddf72c5f103c181f9e06d5de06a4eb42ce5cff99bef27ab60405160405180910390a1600092505b5050919050565b60608060008060016002600354600a60009054906101000a900460ff16838054610ea390611a94565b80601f0160208091040260200160405190810160405280929190818152602001828054610ecf90611a94565b8015610f1c5780601f10610ef157610100808354040283529160200191610f1c565b820191906000526020600020905b815481529060010190602001808311610eff57829003601f168201915b50505050509350828054610f2f90611a94565b80601f0160208091040260200160405190810160405280929190818152602001828054610f5b90611a94565b8015610fa85780601f10610f7d57610100808354040283529160200191610fa8565b820191906000526020600020905b815481529060010190602001808311610f8b57829003601f168201915b50505050509250935093509350935090919293565b60035481565b60065481565b600480811115610fdc57610fdb61139b565b5b600a60009054906101000a900460ff166004811115610ffe57610ffd61139b565b5b03611033576000600a60006101000a81548160ff021916908360048111156110295761102861139b565b5b02179055506110c1565b600a6004546110429190611c14565b4311156110c05760006001600a60009054906101000a900460ff16600481111561106f5761106e61139b565b5b6110799190611c14565b905080600481111561108e5761108d61139b565b5b600a60006101000a81548160ff021916908360048111156110b2576110b161139b565b5b021790555043600481905550505b5b600060048111156110d5576110d461139b565b5b600a60009054906101000a900460ff1660048111156110f7576110f661139b565b5b03611129577f8ad2842071cb64589c8e006941bc20b615aae08a93530e211ca7c9639bd26d9760405160405180910390a15b6001600481111561113d5761113c61139b565b5b600a60009054906101000a900460ff16600481111561115f5761115e61139b565b5b03611191577f8c3ea893b1294dc9c805f857eb427bacab882d32d77a20208e289c6dc501bd9e60405160405180910390a15b600260048111156111a5576111a461139b565b5b600a60009054906101000a900460ff1660048111156111c7576111c661139b565b5b036111f9577f02c124e22ee7da1c9905bbb317cf67658c1cc3ea1c0953b1633f85d0b5c281d960405160405180910390a15b6003600481111561120d5761120c61139b565b5b600a60009054906101000a900460ff16600481111561122f5761122e61139b565b5b03611261577f3bcc93d35219aa0512d7c0d1ca10b0231f473e3d5f9396877d1b7215ee0ab3d560405160405180910390a15b565b600060065482116112775760009050611395565b600073ffffffffffffffffffffffffffffffffffffffff16600560009054906101000a900473ffffffffffffffffffffffffffffffffffffffff1673ffffffffffffffffffffffffffffffffffffffff16146113485760065460096000600560009054906101000a900473ffffffffffffffffffffffffffffffffffffffff1673ffffffffffffffffffffffffffffffffffffffff1673ffffffffffffffffffffffffffffffffffffffff16815260200190815260200160002060008282546113409190611c14565b925050819055505b8160068190555082600560006101000a81548173ffffffffffffffffffffffffffffffffffffffff021916908373ffffffffffffffffffffffffffffffffffffffff160217905550600190505b92915050565b7f4e487b7100000000000000000000000000000000000000000000000000000000600052602160045260246000fd5b600581106113db576113da61139b565b5b50565b60008190506113ec826113ca565b919050565b60006113fc826113de565b9050919050565b61140c816113f1565b82525050565b60006020820190506114276000830184611403565b92915050565b600073ffffffffffffffffffffffffffffffffffffffff82169050919050565b60006114588261142d565b9050919050565b6114688161144d565b82525050565b6000602082019050611483600083018461145f565b92915050565b600080fd5b6000819050919050565b6114a18161148e565b81146114ac57600080fd5b50565b6000813590506114be81611498565b92915050565b6000602082840312156114da576114d9611489565b5b60006114e8848285016114af565b91505092915050565b600081519050919050565b600082825260208201905092915050565b60005b8381101561152b578082015181840152602081019050611510565b60008484015250505050565b6000601f19601f8301169050919050565b6000611553826114f1565b61155d81856114fc565b935061156d81856020860161150d565b61157681611537565b840191505092915050565b6000602082019050818103600083015261159b8184611548565b905092915050565b60006115ae8261142d565b9050919050565b6115be816115a3565b81146115c957600080fd5b50565b6000813590506115db816115b5565b92915050565b6000602082840312156115f7576115f6611489565b5b6000611605848285016115cc565b91505092915050565b6000819050919050565b6116218161160e565b82525050565b600060208201905061163c6000830184611618565b92915050565b61164b8161148e565b82525050565b60006020820190506116666000830184611642565b92915050565b611675816115a3565b82525050565b6000602082019050611690600083018461166c565b92915050565b60008115159050919050565b6116ab81611696565b82525050565b60006020820190506116c660008301846116a2565b92915050565b600060808201905081810360008301526116e68187611548565b905081810360208301526116fa8186611548565b90506117096040830185611642565b6117166060830184611403565b95945050505050565b7f70686173654572726f7200000000000000000000000000000000000000000000600082015250565b6000611755600a836114fc565b91506117608261171f565b602082019050919050565b6000602082019050818103600083015261178481611748565b9050919050565b7f4c657373207468616e206d696e696d756d426964000000000000000000000000600082015250565b60006117c16014836114fc565b91506117cc8261178b565b602082019050919050565b600060208201905081810360008301526117f0816117b4565b9050919050565b7f73656c6c65722062696400000000000000000000000000000000000000000000600082015250565b600061182d600a836114fc565b9150611838826117f7565b602082019050919050565b6000602082019050818103600083015261185c81611820565b9050919050565b7f4e6f742073616d652076616c7565206173207468652070726562696400000000600082015250565b6000611899601c836114fc565b91506118a482611863565b602082019050919050565b600060208201905081810360008301526118c88161188c565b9050919050565b60008160601b9050919050565b60006118e7826118cf565b9050919050565b60006118f9826118dc565b9050919050565b61191161190c826115a3565b6118ee565b82525050565b6000819050919050565b61193261192d8261148e565b611917565b82525050565b60006119448285611900565b6014820191506119548284611921565b6020820191508190509392505050565b6000604082019050611979600083018561166c565b6119866020830184611642565b9392505050565b7f73656c6c65722070726562696400000000000000000000000000000000000000600082015250565b60006119c3600d836114fc565b91506119ce8261198d565b602082019050919050565b600060208201905081810360008301526119f2816119b6565b9050919050565b7f4e6f2072657475726e20616d6f756e7400000000000000000000000000000000600082015250565b6000611a2f6010836114fc565b9150611a3a826119f9565b602082019050919050565b60006020820190508181036000830152611a5e81611a22565b9050919050565b7f4e487b7100000000000000000000000000000000000000000000000000000000600052602260045260246000fd5b60006002820490506001821680611aac57607f821691505b602082108103611abf57611abe611a65565b5b50919050565b7f4e487b7100000000000000000000000000000000000000000000000000000000600052601160045260246000fd5b6000611aff8261148e565b91507fffffffffffffffffffffffffffffffffffffffffffffffffffffffffffffffff8203611b3157611b30611ac5565b5b600182019050919050565b7f73656c6c65722072657665616c00000000000000000000000000000000000000600082015250565b6000611b72600d836114fc565b9150611b7d82611b3c565b602082019050919050565b60006020820190508181036000830152611ba181611b65565b9050919050565b7f4e6f742073616d652076616c7565206173207468652062696400000000000000600082015250565b6000611bde6019836114fc565b9150611be982611ba8565b602082019050919050565b60006020820190508181036000830152611c0d81611bd1565b9050919050565b6000611c1f8261148e565b9150611c2a8361148e565b9250828201905080821115611c4257611c41611ac5565b5b9291505056fea26469706673582212204285eff84a2f6d7500de58137e507a8086725fd4658ae037b1a9b6698622259864736f6c63430008110033a2646970667358221220950d6ae8bfc133ee483905391d56094a45521fce5c99341297eed146cda37bb264736f6c63430008110033",
  "immutableReferences": {},
  "source": "// SPDX-License-Identifier: MIT\npragma solidity >=0.8.0 <0.9.0;\n\ncontract BlindAuctionList {\n  BlindAuction[] public auctions;\n\n  function createAuction(string memory _title, string memory _description, uint _minimumBid) public {\n    BlindAuction newAuction = new BlindAuction(payable(msg.sender), _title, _description, _minimumBid);\n    auctions.push(newAuction);\n  }\n\n  function returnAllAuctions() public view returns(BlindAuction[] memory) {\n    return auctions;\n  }\n}\n\ncontract BlindAuction {\n  \n  address payable public seller; // \n  string public title; // \n  string public description; // \n  uint public minimumBid; //  \n  \n  uint public phaseBlockNumber; //    \n  \n  address public highestBidder; //  \n  uint public highestBid; //  \n  \n  mapping(address => bytes32) public blindedBids; //     \n  mapping(address => uint) bids; //    \n  mapping(address => uint) pendingReturns; //   \n\n\n  //   \n  // Init - 0; Prebid - 1; Bidding - 2; Reveal - 3; Done - 4;\n  // costructor Prebid ,  block.number  .\n  enum Phase { Init, Prebid, Bidding, Reveal, Done }\n  Phase public currentPhase;\n\n  // events\n  event AuctionInit();\n  event PrebidStarted();\n  event BiddingStarted();\n  event RevealStarted();\n  event AuctionEnded(address _winner, uint _highestBid);\n\n  event BidSuccess();\n  event BidFail();\n\n  //  \n  modifier validPhase(Phase reqPhase) {\n    require(currentPhase == reqPhase, \"phaseError\");\n    _;\n  }\n\n  //  \n  modifier onlySeller() {\n    require(msg.sender == seller, \"onlySeller\");\n    _;\n  }\n\n  //  \n  modifier isMinimum(uint value) {\n    require(value >= minimumBid, \"Less than minimumBid\");\n    _;\n  }\n\n  // BlindAuctionList createAuction     \n  constructor(address payable _seller, string memory _title, string memory _description, uint _minimumBid) {\n    seller = _seller;\n    title = _title;\n    description = _description;\n    minimumBid = _minimumBid;\n    phaseBlockNumber = block.number;\n    currentPhase = Phase.Prebid;\n  }\n\n  function getCurrentBlockNumber() public view returns(uint) {\n    return block.number;\n  }\n\n  // Testing\n  uint a;\n  function generateBlockTest() public {\n    a++;\n  }\n\n  function changePhase() public {\n    if (currentPhase == Phase.Done) {\n      currentPhase = Phase.Init;\n    } else {\n      if (block.number > phaseBlockNumber + 10) {\n        uint nextPhase = uint(currentPhase) + 1;\n        currentPhase = Phase(nextPhase);\n        phaseBlockNumber = block.number;\n      }\n    }\n\n    if (currentPhase == Phase.Init) emit AuctionInit();\n    if (currentPhase == Phase.Prebid) emit PrebidStarted();\n    if (currentPhase == Phase.Bidding) emit BiddingStarted();\n    if (currentPhase == Phase.Reveal) emit RevealStarted();\n  }\n\n  // \n  function prebid(uint value) public validPhase(Phase.Prebid) isMinimum(value) {\n    require(msg.sender != seller, \"seller prebid\");\n\n    bids[msg.sender] = value;\n  }\n\n  //    \n  function getMyBid() external view returns (uint) {\n    return bids[msg.sender];\n  }\n\n  // ()\n  function bid() public payable validPhase(Phase.Bidding) isMinimum(msg.value) {\n    require(msg.sender != seller, \"seller bid\");\n    require(msg.value == bids[msg.sender], \"Not same value as the prebid\");\n\n    bytes32 blindedBid = keccak256(abi.encodePacked(msg.sender, msg.value));\n    blindedBids[msg.sender] = blindedBid;\n  }\n\n  // \n  function reveal(uint value) public validPhase(Phase.Reveal) isMinimum(value) returns (bool) {\n    require(msg.sender != seller, \"seller reveal\");\n    require(value == bids[msg.sender], \"Not same value as the bid\");\n\n    if (placeBid(msg.sender, value)) {\n      emit BidSuccess();\n      return true;\n    } else {\n      emit BidFail();\n      return false;\n    }\n  }\n\n  //  \n  function placeBid(address bidder, uint value) internal returns (bool success) {\n    if (value <= highestBid) {\n      return false;\n    }\n    if (highestBidder != address(0)) {\n      pendingReturns[highestBidder] += highestBid;\n    }\n    highestBid = value;\n    highestBidder = bidder;\n    return true;\n  }\n\n  //  \n  function withdraw() public payable {\n    uint amount = pendingReturns[msg.sender];\n    require(amount > 0, \"No return amount\");\n    pendingReturns[msg.sender] = 0;\n    payable(msg.sender).transfer(amount);\n  }\n\n  //     \n  function auctionEnd() public payable validPhase(Phase.Done) {\n    if(address(this).balance >= highestBid) {\n      uint winningBid = highestBid;\n      highestBid = 0;\n      seller.transfer(winningBid);\n    }\n    emit AuctionEnded(highestBidder, highestBid);\n    changePhase(); // Init .\n  }\n\n  function returnContents() public view returns (string memory, string memory, uint, Phase) {\n    return (title, description, minimumBid, currentPhase);\n  }\n}\n",
  "sourcePath": "/home/huketo/BlindAuction-Dapp/BlindAuction-contract/contracts/BlindAuction.sol",
  "compiler": {
    "name": "solc",
    "version": "0.8.17+commit.8df45f5f.Emscripten.clang"
  },
  "schemaVersion": "3.4.10",
  "updatedAt": "2022-10-20T06:31:19.692Z",
  "networkType": "ethereum",
  "devdoc": {
    "kind": "dev",
    "methods": {},
    "version": 1
  },
  "userdoc": {
    "kind": "user",
    "methods": {},
    "version": 1
  }
}